:020000040800F2
:1000000000200020C1000008FD01000811020008C6
:1000100000000000000000000000000000000000E0
:10002000000000000000000000000000FD010008CA
:100030000000000000000000FD010008FD010008B4
:10004000FD010008FD010008FD010008FD01000898
:10005000FD010008FD010008FD010008FD01000888
:10006000FD010008FD010008FD010008FD01000878
:10007000FD010008FD010008FD010008FD01000868
:1000800025020008FD010008FD010008FD0100082F
:10009000FD010008FD010008FD010008FD01000848
:1000A000FD010008FD010008FD010008D907000856
:1000B000FD010008FD010008FD010008FD01000828
:1000C00000F046F800F00AF8E1235B02180000F0A7
:1000D000DFFA62B600F0C8F9FEE7000080B582B032
:1000E00000AF154B7B60154B3B6007E07A68131D32
:1000F0007B603B68191D396012681A603A68104BC2
:100100009A42F3D304E03B681A1D3A6000221A6059
:100110003A680C4B9A42F6D30B4B3B6004E03B68C9
:100120001A1D3A601B6898473A68084B9A42F6D302
:10013000C046BD4602B080BD40150008000000204A
:1001400004000020D00000204015000840150008E1
:1001500080B500AF244B1A68234B24490A401A602B
:10016000C046214B1A6880239B041340F9D1204BD1
:100170001A681F4B01210A431A601D4B1A681C4B59
:1001800006218A431A601A4B1A68194B10210A4338
:100190001A60184B1A68174B17490A401A60154B1A
:1001A0001A68144BA02189030A431A60114B1A687C
:1001B000104B8021C9010A431A600B4B1A680A4B85
:1001C000802149040A431A60C046074B1A688023FD
:1001D0009B041340F9D0074B1A68064B02210A43CF
:1001E0001A60C046BD4680BD00100240FFFFFFFE02
:1001F0000020024004100240FFFFC3FF80B500AFA3
:10020000024B180000F0B4FBFEE7C046F4140008EF
:1002100080B500AF024B180000F0AAFBFEE7C04615
:100220001C15000880B500AF2D4B1A682C4B01211E
:100230008A431A602B4B1B685A1C2A4B1A602A4BA4
:100240001B685A1C284B1A60284B1B68012B1FD1B6
:10025000244B1A68264B1B689A4206D2254B1A6813
:10026000244B10210A431A6005E0224B1A68214BE7
:1002700010218A431A601B4B1B681F4A934207D9FF
:10028000184B00221A601D4B1B685A1C1B4B1A602E
:100290001B4B1B68012B1FD1134B1A68194B1B6892
:1002A0009A4206D2134B1A68124B20210A431A6055
:1002B00005E0104B1A680F4B20218A431A600A4B45
:1002C0001B680D4A934207D9074B00221A600B4B5B
:1002D0001B685A1C094B1A60C046BD4680BDC0460B
:1002E000100400400C00002010000020240000201A
:1002F0000400002014000048CF0700001C0000206C
:10030000200000200800002080B500AF264B1A68AE
:10031000254B802189020A431A60234B1A68224B1D
:100320008021C9020A431A609023DB051A689023D2
:10033000DB05802149000A431A609023DB051A6817
:100340009023DB058021C9000A431A60174B1A6805
:10035000164B802149000A431A60154B1A68144B4A
:1003600002210A431A60134BF02252001A60124B0A
:100370001A68114B802149020A431A600F4B1A6810
:100380000E4B10210A431A600C4B1A680B4B0121CB
:100390000A431A600A4B1A68094B01210A431A6082
:1003A00062B6C046BD4680BD14100240000400483D
:1003B0001C1002402C04004000E100E0000400405A
:1003C0000C04004080B584B000AF7860094B002277
:1003D0001A607B681421180000F09EFC0300FB608B
:1003E000C046044B1A68FB689A42FAD3C046BD4621
:1003F00004B080BD1C00002080B582B000AF7860E2
:100400007B68012B05D1094B1A68084B10210A4360
:100410001A607B68002B05D1044B1A68034B10212E
:100420008A431A60C046BD4602B080BD140400482D
:1004300080B582B000AF78607A68034B1A60C0461E
:10044000BD4602B080BDC0460400002080B582B029
:1004500000AF78607A68034B1A60C046BD4602B0B0
:1004600080BDC0460800002080B58AB000AFFFF70D
:100470004BFF3D4B01221A60C820FFF7E7FFC8235E
:100480009B001800FFF79EFF374B00221A60374B86
:1004900001221A60F020FFF7CBFFC8239B00180051
:1004A000FFF790FF314B00221A600120FFF7A4FFF5
:1004B0002F4B7B6216E02C4B01221A60786A00F009
:1004C000DBFF03001800FFF7C1FF1420FFF77AFFDE
:1004D000254B00221A608021C905786A00F008FEC9
:1004E000031C7B622349786A00F028FD031EE2D1D9
:1004F0001E4B01221A608220FFF79AFFC8239B003F
:100500001800FFF75FFF194B00221A60164B0122FB
:100510001A606420FFF79AFFC8235B001800FFF7FA
:1005200051FF114B00221A600020FFF765FF0F4BAF
:1005300001221A603C20FFF77BFFC8235B001800F4
:10054000FFF740FF094B00221A60074B01221A6097
:100550003C20FFF77BFFC8235B001800FFF732FF4A
:10056000014B00221A6084E72000002024000020B4
:10057000000048430000F04290B585B000AF7860BD
:100580003960184B1B68002B02D101235B4224E029
:100590000023FB600AE0FB685A1CFA603A68D41832
:1005A000114B180000F0B1F9030023707B68013B88
:1005B0001A00FB68934205D20B4B180000F0CEF9ED
:1005C000031EE8D1FB68002B06D03A68FB68D318FD
:1005D00000221A70FB6800E000231800BD4605B039
:1005E00090BDC046C40000202C00002080B584B01F
:1005F00000AF78603960224B1B68002B02D10123C9
:100600005B4238E07B683F2B0BDCC0461D4B18007B
:1006100000F0A4F9020040239A1A7B689A42F5D3AD
:1006200002E002235B4226E00023FB600BE03A6815
:10063000FB68D3181A78134B1100180000F036F934
:10064000FB680133FB607B68FA689A42EFD30E4B7C
:100650001B68082213400DD10B4B1A680A4B082166
:100660000A431A60074B180000F04FF903001A0004
:10067000064B1A6000231800BD4604B080BDC0467A
:10068000C4000020780000200038014028380140D4
:1006900080B584B000AF786072B63F4B00229A6498
:1006A0003D4B9A6C3C4B5A643B4B5A6C3A4B1A6428
:1006B0003A4B00229A64394B9A6C384B5A64374B48
:1006C0005A6C364B1A64364B01221A60354B0022A5
:1006D0001A60354B1A68344B802189020A431A602C
:1006E000324BFB607968F86800F016FB0300FB6092
:1006F0002F4B1A682E4B8021C9020A431A602D4BDA
:100700001A682C4B2C490A401A609023DB051A68A2
:100710009023DB05802109030A431A60274B1A68DE
:10072000264B10210A431A609023DB051A68902398
:10073000DB05802189030A431A60204B1A681F4B8E
:10074000802149000A431A601D4B1A681C4B802106
:10075000C9010A431A601B4B1A681A4B6C210A43E1
:100760001A60194B00221A60184B00221A60184BAD
:10077000FA681A60134B1A68124B01210A431A6077
:10078000144B1A68134B802109050A431A6062B69C
:10079000C046BD4604B080BD2C000020780000207B
:1007A000C40000202800002014100240006CDC026D
:1007B0000800004804000048FFFDFFFF2400004837
:1007C0001810024000380140043801400838014048
:1007D0000C38014000E100E080B500AF084B1B6819
:1007E0008022134001D000F025F8054B1B68202221
:1007F000134001D000F006F8C046BD4680BDC0469B
:100800001C38014080B500AF074B1B68DAB2074BBC
:100810001100180000F04AF8031E02D0044B012218
:100820001A60C046BD4680BD243801402C0000201F
:100830002800002080B500AF164B180000F08EF89D
:10084000031E08D0134B180000F05FF803001A00D5
:10085000114B1A601BE0114B1A68104B08218A4398
:100860001A600F4B1B684022134005D00D4B1A68CD
:100870000C4B40210A431A60094B1B68802213402D
:1008800005D0094B1A68084B10210A431A60C0466C
:10089000BD4680BD78000020283801400038014066
:1008A0001C380140203801401838014080B582B022
:1008B00000AF78600A00FB1C1A707B681A6C7B68BA
:1008C0005B6C9A4205D17B689B6C002B01D00123A5
:1008D00017E072B67B681B6C591C7A6811647A68E1
:1008E000F91C0978D1547B689B6C5A1C7B689A640C
:1008F0007B681B6C402B02D17B6800221A6462B6B5
:1009000000231800BD4602B080BD80B584B000AFA2
:1009100078607B689B6C002B01D100231AE072B6D3
:100920007B685B6C591C7A6851640F22BA1879682D
:10093000CB5C13707B685B6C402B02D17B68002220
:100940005A647B689B6C5A1E7B689A6462B60F235C
:10095000FB181B781800BD4604B080BD80B582B07E
:1009600000AF78607B689B6C1800BD4602B080BD0C
:1009700080B582B000AF78600B4B1B68002B09D1AB
:1009800001235B420BE07B685A1C7A60190001204E
:10099000FFF72CFE7B681B78002BF4D10023180096
:1009A000BD4602B080BDC046C400002080B582B004
:1009B00000AF0200FB1D1A70FB1D19000120FFF79C
:1009C00015FEC046BD4602B080BD80B500AF044BE9
:1009D0001800FFF79AFF03001800BD4680BDC0460F
:1009E0002C000020B0B584B000AF786039601E4B99
:1009F0001B68002B02D101235B4231E00023FB6026
:100A00000B23FB1800221A7017E0C046174B180082
:100A1000FFF7A4FF031EF9D00B257C19134B180018
:100A2000FFF773FF03002370FB685A1CFA601A007B
:100A30007B689B187A1912781A703B68013BFA6838
:100A40009A4204DA0B23FB181B780D2BDDD1FB68CF
:100A5000002B04DDFB687A68D31800221A70FB684B
:100A60001800BD4604B0B0BDC40000202C0000201A
:100A700080B582B000AF7860FEE780B582B000AF8D
:100A8000786001235B421800BD4602B080BD80B58E
:100A900084B000AFF860B9607A60044B0C221A6031
:100AA00001235B421800BD4604B080BDCC0000208D
:100AB00080B500AF034B0B221A6001235B42180084
:100AC000BD4680BDCC00002080B582B000AF78600C
:100AD00039603B68802292015A6000231800BD46AD
:100AE00002B080BD80B500AF01231800BD4680BDB7
:100AF00080B582B000AF78603960044B16221A606E
:100B000001235B421800BD4602B080BDCC0000202E
:100B100080B582B000AF78603960044B1F221A6044
:100B200001235B421800BD4602B080BDCC0000200E
:100B300080B584B000AFF860B9607A600023180017
:100B4000BD4604B080BD80B582B000AF786039602A
:100B50003B68802292015A6000231800BD4602B013
:100B600080BD80B582B000AF786001235B42180081
:100B7000BD4602B080BD80B582B000AF7860044B46
:100B800002221A6001235B421800BD4602B080BDFC
:100B9000CC00002080B582B000AF7860044B0A2200
:100BA0001A6001235B421800BD4602B080BDC046FA
:100BB000CC00002080B582B000AF78607B68003345
:100BC000022B01D8012303E0034B09221A60002302
:100BD0001800BD4602B080BDCC00002080B586B0B4
:100BE00000AF7860144B7B61144B154A9446634404
:100BF0003B61144B1B68002B02D1124B7A691A60BF
:100C0000104B1B68FB600F4B1A687B68D3183A695E
:100C10009A4205D20C4B0C221A6001235B4206E07B
:100C2000084B1A687B68D218064B1A60FB681800DC
:100C3000BD4606B080BDC046D00000200020002088
:100C400000F0FFFF18000020CC00002080B588B025
:100C500000AFF860B9607A600023BB61FB68002BCD
:100C600022D10023FB611AE0FFF7AFFE03001A0058
:100C700017217B181A70BB685A1CBA607A18127850
:100C8000D2B21A70BB690133BB617B181B78DBB22F
:100C90000A2B01D1BB690EE0FB690133FB61FA69E4
:100CA0007B689A42E0DB05E0054B09221A600123CC
:100CB0005B4200E0BB691800BD4608B080BDC0467D
:100CC000CC00002080B586B000AFF860B9607A60D3
:100CD000FB68013B012B11D800237B6109E0BB6855
:100CE0005A1CBA601B781800FFF760FE7B6901335D
:100CF0007B617A697B689A42F1DB05E0054B09224A
:100D00001A6001235B4200E07B681800BD4606B014
:100D100080BDC046CC00002003460B437FD4002298
:100D200043088B4274D303098B425FD3030A8B427F
:100D300044D3030B8B4228D3030C8B420DD3FF22E9
:100D4000090212BA030C8B4202D31212090265D0B7
:100D5000030B8B4219D300E0090AC30B8B4201D36A
:100D6000CB03C01A5241830B8B4201D38B03C01AB1
:100D70005241430B8B4201D34B03C01A5241030B28
:100D80008B4201D30B03C01A5241C30A8B4201D3D9
:100D9000CB02C01A5241830A8B4201D38B02C01A84
:100DA0005241430A8B4201D34B02C01A5241030AFB
:100DB0008B4201D30B02C01A5241CDD2C3098B42E0
:100DC00001D3CB01C01A524183098B4201D38B015D
:100DD000C01A524143098B4201D34B01C01A524100
:100DE00003098B4201D30B01C01A5241C3088B4245
:100DF00001D3CB00C01A524183088B4201D38B0030
:100E0000C01A524143088B4201D34B00C01A5241D1
:100E1000411A00D201465241104670475DE0CA0FA8
:100E200000D04942031000D34042534000229C4668
:100E300003098B422DD3030A8B4212D3FC22890172
:100E400012BA030A8B420CD3890192118B4208D348
:100E5000890192118B4204D389013AD0921100E0AA
:100E60008909C3098B4201D3CB01C01A52418309BE
:100E70008B4201D38B01C01A524143098B4201D3EB
:100E80004B01C01A524103098B4201D30B01C01A16
:100E90005241C3088B4201D3CB00C01A5241830890
:100EA0008B4201D38B00C01A5241D9D243088B42E6
:100EB00001D34B00C01A5241411A00D20146634689
:100EC00052415B10104601D34042002B00D54942ED
:100ED000704763465B1000D3404201B5002000F02C
:100EE00005F802BD0029F8D016E770477047C046E4
:100EF0008446081C6146FFE71FB500F0A9F80028EA
:100F000001D40021C8421FBD10B500F02BF84042AB
:100F1000013010BD10B500F09BF8002801DB002067
:100F200010BD012010BDC04610B500F091F800289A
:100F300001DD002010BD012010BDC04610B500F03D
:100F400039F8002801DC002010BD012010BDC0468A
:100F500010B500F02FF8002801DA002010BD0120A4
:100F600010BDC04670B542004E024C0045026D0AED
:100F7000120EC30F760A240EC90FFF2A0FD0FF2CC2
:100F800011D00120A24200D070BDB542FCD18B42ED
:100F90000DD0002AF8D12800451EA841F4E7012011
:100FA000002DF1D1EBE70120002EEDD1E9E7002083
:100FB000EAE7C04670B54A004E02450244006D0A99
:100FC000240EC30F760A120EC90FFF2C15D0FF2A6C
:100FD0000ED0002C15D1002A01D1002E1CD0002DDE
:100FE00014D08B4227D00220013B1840013870BD3D
:100FF000002EEED002204042F9E7002DFAD1FF2A60
:101000000ED0002A0ED1002EEDD00BE001230139C5
:10101000994308000130EAE70020002DE7D0E2E71D
:10102000002EE7D18B42DED1944205DD0221581E0D
:1010300008400138DBE70024A24204DCB542D2D8E4
:101040000020B542D3D2581E012398430130CEE789
:1010500030B5420044024D02C30F4800640A120E2C
:101060006D0A000EC90FFF2A12D0FF280CD0002AEB
:1010700012D1002819D1002D17D1002C2BD002201D
:10108000013B1840013826E0002DF0D0022022E07C
:10109000002CFBD1FF281FD000281FD1002D1DD10F
:1010A0000220013B1840013815E0002C0ED08B4285
:1010B000E5D10022904204DCAC42E0D80020AC42F2
:1010C00009D2581E01239843013004E0012301395D
:1010D00099430800013030BD002DD7D18B42CED1CD
:1010E0008242E7DD0221581E08400138F3E7C0467E
:1010F000F8B54746CE464400C20F80B547024802C5
:10110000400A8446664648007F0A240EF600250001
:101110009046FB00000EC90FB146FF2800D185E0C4
:1011200001267140261A914257D0002E43DD002837
:1011300000D07FE04946002900D1AAE0013E002E00
:1011400000D0F7E05B1A5A0100D48BE09B019C09A8
:10115000200000F0B1F905388440854200DDD3E07D
:10116000451B230020200135EB40451BAC40621E8F
:1011700094412343072400251C40012241460A4094
:10118000002C04D00F211940042900D00433590148
:1011900000D480E00135ECB2FF2D00D0A3E0FF24A5
:1011A00000235B02E405580AD207204310430CBC1D
:1011B00090469946F8BD002E74D1601CC0B201283B
:1011C00000DCA7E04A469C1A620100D5B6E0002C7C
:1011D000BED1002200240023E3E7002E00DC85E0DE
:1011E000002846D0FF2C49D080224846D204104324
:1011F000814601221B2E09DC20204C46801B8440A6
:101200004A462000F240441EA04102439B185A0166
:1012100028D50135FF2D00D1A8E0012207249449EB
:101220001A405B080B4013431C40A6E7002E00D079
:1012300078E775E7FF2C54D080224946D204114349
:10124000894601221B2E09DC20214846891B884043
:101250004A460100F240481E81410A439B1A5A0146
:1012600000D573E7012241460A40590700D089E7BB
:1012700011E04846002858D1FF2C0CD1DB08002B88
:1012800000D18CE78020C00303435B025B0AFF248C
:1012900087E7FF2C25D0DB08FF2DF0D05B025B0A2F
:1012A000ECB27EE7002C4DD0FF2818D08024E40457
:1012B000724223431B2A00DDC4E01C002025D440D9
:1012C000AA1A93405A1E934123434A460500D31A53
:1012D000884638E7721CF8D0F243FF28EAD10A00AA
:1012E0004B46FF25D7E79B015B0A5AE7002E41D109
:1012F000651CE9B2012945DDFF2D00D14FE7072428
:101300004B445B081C4038E707225A4B2D1A2340F8
:10131000144032E7002C1DD1002B7AD14B46002B14
:1013200000D191E00A000025B5E7013E002E19D159
:101330004B446CE7FF2C84D1FF25ACE74A46884636
:10134000D41A05E7002BC5D10A00FF28C8D0050034
:101350004B46A0E7002B49D14B46002B77D00A0023
:10136000FF2598E7FF2C00D043E787E70A00FF241A
:10137000002316E7002C15D1002B57D1FF28E6D10A
:101380004B467BE7002C20D1002B57D04946002943
:1013900053D04B445A0168D50724364A1C400125D6
:1013A0001340EAE6FF28EBD08022D20476421343B2
:1013B0001B2E53DC2025AD1B1A00AB40F2405C1EF7
:1013C000A34113434B44050021E7002BD8D04946E5
:1013D000002900D152E78021C9030F4200D14DE717
:1013E0006046084200D049E74B4647E74846FF259C
:1013F000002800D14FE78022D203174204D0604674
:10140000104201D14B46884601224146FF250A4041
:1014100041E7484600281FD01A1A500120D54A46F5
:101420000724D31A1C4088460025A6E6741CC9D0A0
:10143000F643FF28BCD14B4620E799464B46002592
:10144000DB082BE7012340E700220023A9E68023E5
:101450000022DB03FF24A4E600251CE70123B1E7FB
:10146000002AF1D013000025FCE60025FAE6C0466C
:10147000FFFFFF7DFFFFFFFB41024200C30F490A50
:10148000120E00207E2A0DD99D2A0CD8802000043F
:101490000143952A0ADC9620821AD1404842002B4B
:1014A00000D108007047034A9818FBE7963A91402C
:1014B000F4E7C046FFFFFF7F1C2101231B04984275
:1014C00001D3000C10391B0A984201D3000A0839D5
:1014D0001B09984201D30009043902A2105C40188C
:1014E0007047C04604030202010101010000000030
:1014F00000000000496E746572727570742077691F
:1015000074686F7574204953522E20205379737478
:10151000656D2073746F702E000000004861726466
:10152000204661756C7420696E7465727275707492
:101530002E202053797374656D2073746F702E00A4
:041540001400002073
:04000005080000C12E
:00000001FF
