:03000000020421D6
:0100030032CA
:03000B000201C42B
:0100130032BA
:01001B0032B2
:0100230032AA
:03002B00020203CB
:10002E00C00078B10000D8FCD00022C000C0017919
:10003E002D78A6D8FED9FADAF6D001D00022D293C6
:10004E0012002EC29322A2E792B5A2E692B4A2E5C6
:10005E0092B3A2E492B212004C12002EA2E392B519
:10006E00A2E292B4A2E192B3A2E092B212004C22AA
:10007E00D291020054C291020054C293C2927433C0
:10008E0012008374331200837432120083742812A8
:10009E000083740C1200837401120083C0027A0272
:1000AE00120039D00222E493600612007EA380F67D
:1000BE002244404480020083C0E0E8C4540F443020
:1000CE0012007EE8540F443012007ED0E0225765B5
:1000DE006C636F6D65210078783A78783A7878009D
:1000EE00626F6F74696E672E2E2E00434C4F434B1A
:1000FE00005745454B444159204D4F444500574507
:10010E00454B454E44204D4F44450053554E4441BA
:10011E005920202020004D4F4E44415920202020B0
:10012E000054554553444159202020005745444E14
:10013E004553444159200054485552534441592087
:10014E00200046524944415920202020005341545A
:10015E005552444159202000414D00504D00200081
:10016E002020002020202020202020200059004E7A
:10017E00003A002A00787800496E70757420496E36
:10018E0076616C69642100424F4F5420746F206376
:10019E006F6E74696E756500E58954F04401F589DA
:1001AE00758C00758A6175F40075F261E4F538F5A9
:1001BE0039C28DD2A922C0E0C0D00538E538700210
:1001CE000539E538B4640EE539B40009D202B2B689
:1001DE00E4F538F539C28DD0D0D0E03275C800754F
:1001EE00CD5375CC3475CB5375CA34E4F530F53137
:1001FE00D2ADD2CA22C2CFC0E0C0D00530E5307039
:10020E00020531E530B4F40AE531B40105D200023D
:10021E0002230202F7300D0302025D300431E5368F
:10022E00B401028012B40202800DB403028008B43D
:10023E0004028003B40518E535B54213E534B54123
:10024E000EE533B54009E532B53F04D20DC2B730E5
:10025E000E028023300320B406028003B40018E59A
:10026E0035B53D13E534B53C0EE533B53B09E53206
:10027E00B53A04D20EC2B7E4F530F531E532B459D1
:10028E004F7400D4F532E533B4593C7400D4F533D1
:10029E00E535B40009E534B4122474018007E53461
:1002AE00B4111B7400D4F534E535B4012C7400D4AC
:1002BE00F535E536B4062B7400D4F536802BE534CF
:1002CE002401D4F5348022E5332401D4F53380198A
:1002DE00E5322401D4F5328010E5352401D4F5350C
:1002EE008007E5362401D4F536D0D0D0E032C0E018
:1002FE007401120083C0027A02120039D002D0E0DB
:10030E0022C0E07401141200C1D0E0C000A8341263
:10031E0000C6D000C0E07404141200C1D0E0C000CA
:10032E00A8331200C6D000C0E07407141200C1D06A
:10033E00E0C000A8321200C6D000C0E0740A141249
:10034E0000C1D0E0E535B40015C083C082C0E09096
:10035E0001661200B4D0E0D082D08302037EC08347
:10036E00C082C0E09001691200B4D0E0D082D08388
:10037E00C0E07401141200BFD0E0E536B40013C023
:10038E0083C082C0E09001191200B4D0E0D082D0B8
:10039E008322B40113C083C082C0E09001241200F6
:1003AE00B4D0E0D082D08322B40213C083C082C006
:1003BE00E090012F1200B4D0E0D082D08322B4039B
:1003CE0013C083C082C0E090013A1200B4D0E0D0D6
:1003DE0082D08322B40413C083C082C0E090014552
:1003EE001200B4D0E0D082D08322B40513C083C0F3
:1003FE0082C0E09001501200B4D0E0D082D08322AF
:10040E00C083C082C0E090015B1200B4D0E0D08205
:10041E00D0832275817F1201A61201EA75E600755E
:10042E00E700D2AF120088D200D2027532007533C7
:10043E0059753411753603753501750100753A001D
:10044E00753B00753C00753D00753E00753F0075AF
:10045E004000754100754200754300C203C204C2DC
:10046E0005C206C209C208C207C20CC20BC20AC22A
:10047E000DC20E7D79C28C20C511C0027A321200D7
:10048E0039D00220C50530C5FD807FED1200837482
:10049E005712007E0DED120083744512007E0DED95
:1004AE00120083744C12007E0DED12008374431201
:1004BE00007E0DED120083744F12007E0DED1200C2
:1004CE0083744D12007E0DED120083744512007E72
:1004DE000DED120083742112007E0DC0027AFF1200
:1004EE000039D002C0027AFF120039D00274011214
:1004FE000083C0027A02120039D0021D1D1D1D1D7F
:10050E001D1DBD91027D79020485D2CAC28C1202D4
:10051E00FCC0027A64120039D002C0E074011412D9
:10052E0000C1D0E0C083C082C0E09000E51200B4EC
:10053E00D0E0D082D083C0E07401141200BFD0E0AE
:10054E00C083C082C0E09000EE1200B4D0E0D08232
:10055E00D083300D03020569300E1820C515C00278
:10056E007A32120039D00220C50930C5FDC20DC243
:10057E000ED2B7208012C0027A32120039D0022079
:10058E0080063080FD02095A208412C0027A32128F
:10059E000039D0022084063084FD0207A6300406FE
:1005AE0030030C0206D130030302064702075BD26A
:1005BE008C200203020795C20230010302060AC014
:1005CE00E0740F141200BFD0E0C083C082C0E09070
:1005DE00016C1200B4D0E0D082D083C0E07410144D
:1005EE001200BFD0E0C083C082C0E090016C120048
:1005FE00B4D0E0D082D083D201020795C0E0740F50
:10060E00141200BFD0E0C083C082C0E090018112FE
:10061E0000B4D0E0D082D083C0E07410141200BFBA
:10062E00D0E0C083C082C0E090016C1200B4D0E074
:10063E00D082D083C201020795D28C20020302071A
:10064E0095C202300103020694C0E0740F1412002A
:10065E00BFD0E0C083C082C0E090016C1200B4D065
:10066E00E0D082D083C0E07410141200BFD0E0C07E
:10067E0083C082C0E090016C1200B4D0E0D082D072
:10068E0083D201020795C0E0740F141200BFD0E0B0
:10069E00C083C082C0E090016C1200B4D0E0D08262
:1006AE00D083C0E07410141200BFD0E0C083C082AB
:1006BE00C0E09001811200B4D0E0D082D083C2019C
:1006CE00020795D28C200203020795C20230010365
:1006DE0002071EC0E0740F141200BFD0E0C083C02A
:1006EE0082C0E090016C1200B4D0E0D082D083C002
:1006FE00E07410141200BFD0E0C083C082C0E0903E
:10070E00016C1200B4D0E0D082D083D201020795E2
:10071E00C0E0740F141200BFD0E0C083C082C0E0EE
:10072E009001811200B4D0E0D082D083C0E074106A
:10073E00141200BFD0E0C083C082C0E090018112CD
:10074E0000B4D0E0D082D083C201020795C28CC023
:10075E00E0740F141200BFD0E0C083C082C0E090DE
:10076E00016C1200B4D0E0D082D083C0E0741014BB
:10077E001200BFD0E0C083C082C0E090016C1200B6
:10078E00B4D0E0D082D08330000302079E02056011
:10079E00C20012030F020560D28CC2CA7537011255
:1007AE00030F20020302086AC20230010302086529
:1007BE00E537B4011EC0E07401141200C1D0E0C0D0
:1007CE0083C082C0E090016E1200B4D0E0D082D01F
:1007DE0083807FB4021EC0E07404141200C1D0E006
:1007EE00C083C082C0E090016E1200B4D0E0D0820F
:1007FE00D083805EB4031EC0E07407141200C1D013
:10080E00E0C083C082C0E090016E1200B4D0E0D090
:10081E0082D083803DB4041EC0E0740A141200C15D
:10082E00D0E0C083C082C0E090016E1200B4D0E070
:10083E00D082D083801CC0E07401141200BFD0E0BF
:10084E00C083C082C0E09001711200B4D0E0D082AB
:10085E00D083D20102086AC20112030F208412C093
:10086E00027A32120039D0022084063084FD02084A
:10087E00B9208312C0027A32120039D002208306C8
:10088E003083FD0208C020821FC0027A3212003966
:10089E00D0022082133082FD0208A9E537B4050686
:1008AE007537010207B005370207B0D2CAC28C02F3
:1008BE000560E537B40102802BB402028019B4033F
:1008CE00028007B4040280388043E532B4595F7465
:1008DE0000D4F5320207B0E533B459487400D4F5AC
:1008EE00330207B0E535B4000AE534B4112C7400B8
:1008FE00020908E534B412227401D4F5340207B0AB
:10090E00E535B401337400D4F5350207B0E536B4DD
:10091E0006307400D4F5360207B0E5342401D4F560
:10092E00340207B0E5332401D4F5330207B0E532C3
:10093E002401D4F5320207B0E5352401D4F5350291
:10094E0007B0E5362401D4F5360207B01202FCC218
:10095E008CC0E07404141200C1D0E0C083C082C009
:10096E00E09000E51200B4D0E0D082D083C0E074F5
:10097E0002141200BFD0E0C083C082C0E09000FF1E
:10098E001200B4D0E0D082D083020AE720061FC046
:10099E00E0740F141200BFD0E0C083C082C0E0909C
:1009AE00016E1200B4D0E0D082D083020AE7C0E01C
:1009BE007404141200C1D0E0C000A8411200C6D0C9
:1009CE0000C0E07407141200C1D0E0C000A84012AD
:1009DE0000C6D000C0E0740A141200C1D0E0C000FE
:1009EE00A83F1200C6D000C0E0740D141200C1D092
:1009FE00E0E542B40014C083C082C0E090016612EC
:100A0E0000B4D0E0D082D0838012C083C082C0E018
:100A1E009001691200B4D0E0D082D083C0E074108F
:100A2E00141200BFD0E0200417C28CC083C082C055
:100A3E00E090017D1200B4D0E0D082D083020AE7AC
:100A4E00C083C082C0E090017B1200B4D0E0D0829F
:100A5E00D083D28C200203020AE7C20230010302C5
:100A6E000AADC0E07406141200C1D0E0C083C0828B
:100A7E00C0E090016C1200B4D0E0D082D083C0E010
:100A8E007409141200C1D0E0C083C082C0E090018E
:100A9E006C1200B4D0E0D082D083D201020AE7C03B
:100AAE00E07406141200C1D0E0C083C082C0E09092
:100ABE00017F1200B4D0E0D082D083C0E07409145C
:100ACE001200C1D0E0C083C082C0E090017F12004E
:100ADE00B4D0E0D082D083C201300D03020AF030D0
:100AEE000E1820C515C0027A32120039D00220C568
:100AFE000930C5FDC20DC20ED2B7208012C0027AD7
:100B0E0032120039D0022080063080FD020F1F20E5
:100B1E008412C0027A32120039D002208406308448
:100B2E00FD020B50208312C0027A32120039D0021D
:100B3E002083063083FD020EBF20060302095F02EA
:100B4E0009BCD28C753701200203020D8BC2023014
:100B5E000103020C0AE537B4011EC0E0740414123E
:100B6E0000C1D0E0C083C082C0E090016E1200B41C
:100B7E00D0E0D082D083807FB4021EC0E074071410
:100B8E001200C1D0E0C083C082C0E090016E12009E
:100B9E00B4D0E0D082D083805EB4031EC0E0740A6D
:100BAE00141200C1D0E0C083C082C0E090016E126A
:100BBE0000B4D0E0D082D083803DB4041EC0E07477
:100BCE000D141200C1D0E0C083C082C0E090016E4F
:100BDE001200B4D0E0D082D083801CC0E074101418
:100BEE001200BFD0E0C083C082C0E090016C120042
:100BFE00B4D0E0D082D083D201020D8BC201200688
:100C0E00028003020CE9C0E07404141200C1D0E0AB
:100C1E00200C15C083C082C0E09001831200B4D0B6
:100C2E00E0D082D083020C3FC000A8411200C6D093
:100C3E0000C0E07407141200C1D0E0200B15C08371
:100C4E00C082C0E09001831200B4D0E0D082D08385
:100C5E00020C6AC000A8401200C6D000C0E0740AA0
:100C6E00141200C1D0E0200A15C083C082C0E090EB
:100C7E0001831200B4D0E0D082D083020C95C00064
:100C8E00A83F1200C6D000C0E0740D141200C1D0EF
:100C9E00E0E542B40014C083C082C0E09001661249
:100CAE0000B4D0E0D082D0838012C083C082C0E076
:100CBE009001691200B4D0E0D082D083C0E07410ED
:100CCE00141200BFD0E0C083C082C0E090016C124D
:100CDE0000B4D0E0D082D083020D8BC0E074041437
:100CEE001200C1D0E0C000A8411200C6D000C0E082
:100CFE007407141200C1D0E0C000A8401200C6D084
:100D0E0000C0E0740A141200C1D0E0C000A83F1267
:100D1E0000C6D000C0E0740D141200C1D0E0E54250
:100D2E00B40014C083C082C0E09001661200B4D03B
:100D3E00E0D082D0838012C083C082C0E09001696F
:100D4E001200B4D0E0D082D083C0E0741014120030
:100D5E00BFD0E0200415C083C082C0E090017D1298
:100D6E0000B4D0E0D082D083020D8BC083C082C08D
:100D7E00E090017B1200B4D0E0D082D083208414A6
:100D8E00C0027A32120039D0022084083084FDC2AB
:100D9E008C020DCC208312C0027A32120039D0029E
:100DAE002083063083FD020DF1208234C0027A3298
:100DBE00120039D0022082283082FD020DD5200685
:100DCE0003020ECF02095FE537200609B4040F7542
:100DDE003701020B55B40506753701020B55053761
:100DEE00020EACE537B40102802BB402028019B4B6
:100DFE0003028007B4040280388043E53FB4597A79
:100E0E007400D4F53F020EACE540B459587400D4CA
:100E1E00F540020EACE542B4000AE541B411277468
:100E2E0000020E39E541B4121D7401D4F541020ED3
:100E3E00ACE542B401597400D4F542020EAC200464
:100E4E0058D204020EAC200C12E542B401057541D5
:100E5E00018003754100D20C020EACE5412401D491
:100E6E00F541020EAC200B08754000D20B020EAC01
:100E7E00E5402401D4F540020EAC200A08753F006F
:100E8E00D20A020EACE53F2401D4F53F020EACE5CA
:100E9E00422401D4F542020EACC204020B55300CB2
:100EAE000B300B08300A05D206020B55C206020B98
:100EBE005530060D300405C20402095FD204020942
:100ECE005F1202FCC0E07401141200C1D0E0C083B6
:100EDE00C082C0E09001861200B4D0E0D082D083F0
:100EEE00C0E07401141200BFD0E0C083C082C0E025
:100EFE009001951200B4D0E0D082D08320C5C5C039
:100F0E00027A32120039D00220C5B930C5FD02096D
:100F1E005A1202FCC28CC0E07404141200C1D0E05C
:100F2E00C083C082C0E09000E51200B4D0E0D08251
:100F3E00D083C0E07402141200BFD0E0C083C08220
:100F4E00C0E090010C1200B4D0E0D082D083021029
:100F5E00AC20051FC0E0740F141200BFD0E0C08398
:100F6E00C082C0E090016E1200B4D0E0D082D08377
:100F7E000210ACC0E07404141200C1D0E0C000A88E
:100F8E003C1200C6D000C0E07407141200C1D0E0BD
:100F9E00C000A83B1200C6D000C0E0740A141200B4
:100FAE00C1D0E0C000A83A1200C6D000C0E0740D57
:100FBE00141200C1D0E0E53DB40014C083C082C05D
:100FCE00E09001661200B4D0E0D082D0838012C0CF
:100FDE0083C082C0E09001691200B4D0E0D082D00C
:100FEE0083C0E07410141200BFD0E0200317C28C2F
:100FFE00C083C082C0E090017D1200B4D0E0D082E8
:10100E00D0830210ACC083C082C0E090017B12007E
:10101E00B4D0E0D082D083D28C2002030210ACC2B6
:10102E0002300103021072C0E07406141200C1D027
:10103E00E0C083C082C0E090016C1200B4D0E0D05A
:10104E0082D083C0E07409141200C1D0E0C083C006
:10105E0082C0E090016C1200B4D0E0D082D083D276
:10106E00010210ACC0E07406141200C1D0E0C083BF
:10107E00C082C0E090017F1200B4D0E0D082D08355
:10108E00C0E07409141200C1D0E0C083C082C0E079
:10109E0090017F1200B4D0E0D082D083C201300D17
:1010AE00030210B5300E1820C515C0027A32120098
:1010BE0039D00220C50930C5FDC20DC20ED2B720EF
:1010CE008012C0027A32120039D00220800630809F
:1010DE00FD020518208412C0027A32120039D002A5
:1010EE002084063084FD021115208312C0027A324C
:1010FE00120039D0022083063083FD0214842005AD
:10110E0003020F24020F81D28C75370120020302D5
:10111E001350C2023001030211CFE537B4011EC0D5
:10112E00E07404141200C1D0E0C083C082C0E0900D
:10113E00016E1200B4D0E0D082D083807FB4021E44
:10114E00C0E07407141200C1D0E0C083C082C0E0BA
:10115E0090016E1200B4D0E0D082D083805EB403D2
:10116E001EC0E0740A141200C1D0E0C083C082C059
:10117E00E090016E1200B4D0E0D082D083803DB4F6
:10118E00041EC0E0740D141200C1D0E0C083C082F2
:10119E00C0E090016E1200B4D0E0D082D083801CEB
:1011AE00C0E07410141200BFD0E0C083C082C0E053
:1011BE0090016C1200B4D0E0D082D083D201021321
:1011CE0050C20120050280030212AEC0E074041466
:1011DE001200C1D0E0200915C083C082C0E090018A
:1011EE00831200B4D0E0D082D083021204C000A8D3
:1011FE003C1200C6D000C0E07407141200C1D0E04B
:10120E00200815C083C082C0E09001831200B4D0C4
:10121E00E0D082D08302122FC000A83B1200C6D0AD
:10122E0000C0E0740A141200C1D0E0200715C0837C
:10123E00C082C0E09001831200B4D0E0D082D0838F
:10124E0002125AC000A83A1200C6D000C0E0740DB7
:10125E00141200C1D0E0E53DB40014C083C082C0BA
:10126E00E09001661200B4D0E0D082D0838012C02C
:10127E0083C082C0E09001691200B4D0E0D082D069
:10128E0083C0E07410141200BFD0E0C083C082C0CF
:10129E00E090016C1200B4D0E0D082D083021350E3
:1012AE00C0E07404141200C1D0E0C000A83C1200CB
:1012BE00C6D000C0E07407141200C1D0E0C000A870
:1012CE003B1200C6D000C0E0740A141200C1D0E078
:1012DE00C000A83A1200C6D000C0E0740D1412006F
:1012EE00C1D0E0E53DB40014C083C082C0E09001DF
:1012FE00661200B4D0E0D082D0838012C083C08248
:10130E00C0E09001691200B4D0E0D082D083C0E07A
:10131E007410141200BFD0E0200315C083C082C029
:10132E00E090017D1200B4D0E0D082D08302135041
:10133E00C083C082C0E090017B1200B4D0E0D082A6
:10134E00D083208414C0027A32120039D002208455
:10135E00083084FDC28C021391208312C0027A32AF
:10136E00120039D0022083063083FD0213B620828C
:10137E0034C0027A32120039D0022082283082FD27
:10138E0002139A200503021494020F24E537200558
:10139E0009B4040F75370102111AB4050675370129
:1013AE0002111A0537021471E537B40102802BB40D
:1013BE0002028019B403028007B40402803880430D
:1013CE00E53AB4597A7400D4F53A021471E53BB497
:1013DE0059587400D4F53B021471E53DB4000AE58A
:1013EE003CB4112774000213FEE53CB4121D7401C7
:1013FE00D4F53C021471E53DB401597400D4F53DA9
:10140E00021471200358D203021471200912E53D13
:10141E00B40105753C018003753C00D209021471BC
:10142E00E53C2401D4F53C021471200808753B00FC
:10143E00D208021471E53B2401D4F53B021471204D
:10144E000708753A00D207021471E53A2401D4F563
:10145E003A021471E53D2401D4F53D021471C20324
:10146E0002111A30090B300808300705D205021197
:10147E001AC20502111A30050D300305C203020F00
:10148E0024D203020F241202FCC0E07401141200D5
:10149E00C1D0E0C083C082C0E09001861200B4D0FB
:1014AE00E0D082D083C0E07401141200BFD0E0C03F
:1014BE0083C082C0E09001951200B4D0E0D082D0FB
:1014CE008320C5C5C0027A32120039D00220C5B9B8
:0614DE0030C5FD020F1FE6
:00000001FF
