:1000000002002E00000000000000000000000000C0
:1000200000000000000000000000000205037581D0
:100030007612049AE582600302009A780079007AC9
:10004000007B007C007D00EC4D601C88828983E48D
:1000500093A3A882A9838A828B83F0A3AA82AB830D
:100060001CBCFFE31D80E07582007583007C007D71
:1000700000EC4D600AE4F0A31CBCFFF51D80F27596
:1000800082007583007C007D00EC4D600AE4F0A3E3
:100090001CBCFFF51D80F21203F5120A4980FE0A0E
:1000A0004B6E6F776E2056616C7565733A202569CB
:1000B0002063757272656E742C202566206D732026
:1000C000636F756E7465642C202569207475726E7B
:1000D00020706F776572000A54696D6520706572D3
:1000E000203336303A202566000A4D756C746970ED
:1000F0006C65206F66203336303A202566000A6131
:100100006E676C655F6368616E67653A202566009F
:100110001B5B324A0057656C636F6D6520746F20FE
:10012000746865206D6F746F7220636F6E74726F88
:100130006C6C65722120506C656173652070696319
:100140006B2066726F6D20746865207365766572CA
:10015000616C206D6F6465732062656C6F773A0027
:100160000A283029202D2053746F70207468652070
:100170004D6F746F7220436F6E74726F6C6C65722A
:10018000000A283129202D205475726E20436F7586
:100190006E7465722D436C6F636B77697365206154
:1001A00074206D6178696D756D207370656564008C
:1001B0000A283229202D205475726E20436C6F63FB
:1001C0006B77697365206174206D6178696D756DF9
:1001D000207370656564000A283329202D2054752A
:1001E000726E206174207661726961626C65207341
:1001F0007065656420616E642074696D65000A280D
:100200003429202D205475726E206174207661721D
:100210006961626C6520737065656420616E64203D
:10022000616E676C65000A283529202D20444A2F0D
:1002300053637265656E7769706572206D6F646572
:10024000000A283629202D20507974686F6E2041CD
:100250006E676C65000A283929202D205265736568
:10026000742C20746865204D6F746F7220436F6E1C
:1002700074726F6C6C6572000A0A456E7465722048
:100280006D6F64653A2000202569000A437572721B
:10029000656E7420616E676C653A202569000A45B9
:1002A0006E746572203120666F7220636C6F636BB1
:1002B000776973652C203020666F7220636F756ECE
:1002C000746572636C6F636B7769736528646566C8
:1002D00061756C74293A20000A456E746572207449
:1002E00075726E20737065656420283020746F20ED
:1002F0003130293A20000A456E7465722074696DA8
:10030000653A20000A456E74657220616E676C65FF
:100310003A20000A0A0A0A5761726E696E67212044
:100320005468657265206973206E6F2072657475FC
:10033000726E2066726F6D20646973636F206D6FDB
:1003400064652E000A7B2020546F206261636B205D
:100350006F75742C20656E746572207370656564AA
:10036000202D31000A7C202046756E206D6F64655B
:1003700020697320616C736F20617661696C6162C2
:100380006C6520627920656E746572696E67202DD8
:100390003221000A7C20200A7C20204F6E636520D9
:1003A00064616E63696E672C20616C77617973207C
:1003B00064616E63696E67212048617665206675A9
:1003C0006E21000A2053706565643F202830207438
:1003D0006F2031303030290A002020444953434FE8
:1003E000202A2A000A526573657474696E67202E8C
:1003F000202E202E007525007526007527007528F3
:1004000000E4F529F52A752B00752C32E4F52D75DD
:100410002E64E4F52FE4F530F531753201E4F5335F
:10042000E4F534F535E4F536F537750A01E4F50BF6
:10043000F50CF50D22AA82438E407592B87593FF94
:100440008592948593957591047B00C3EB9A500B2C
:10045000E59130E7FB53917F0B80F075910022AA64
:1004600082AB837C007D00C3EC9AED9B502B7E0019
:10047000BE0400501D7582FAC002C003C004C0054E
:10048000C006120435D006D005D004D003D0020E29
:1004900080DE0CBC00D10D80CE2275A7007597DEE2
:1004A0007597AD75FF8075EF0675A71075C120753E
:1004B000A70075A90075A900E5A930E7FB75A90398
:1004C00075A903E5A930E7FB43A41075E10175E2C6
:1004D0000075E340759810758DE6858D8B53890FF7
:1004E000438920D28ED29975C800438E1075CAE018
:1004F00075CBE375CEFF75CFFFD2ADD2CAD2AF7543
:10050000820022C020C0E0C0F0C082C083C002C010
:1005100003C004C005C006C007C000C001C0D0753C
:10052000D000C2CF052BAA2B7B00C3E52E9AE52F66
:100530009B40030205C2752B007401B52906E4B582
:100540002A0280028038C37432952CE4952D502EF7
:10055000E4C0E0C0E07480C0E0743FC0E085258264
:100560008526838527F0E52812187D8582258583D9
:100570002685F027F528E58124FCF5818044740167
:10058000B52906E4B52A0280028037C3E52C9432EF
:10059000E52D9400502CE4C0E0C0E07480C0E0740D
:1005A0003FC0E08525828526838527F0E52812193E
:1005B0007A85822585832685F027F528E58124FC28
:1005C000F581E5324533701EAA2BFBC3E52C9AE575
:1005D0002D9B9291AA2B7B00C3E52C9AE52D9B9233
:1005E00008B392928004C291C292D0D0D001D000C0
:1005F000D007D006D005D004D003D002D083D0825B
:10060000D0F0D0E0D0203285823E85833FC3E53CE8
:100610009432E53D9400500C7464C3953CF53CE481
:10062000953DF53DE5384539453A853BF0C2F745FE
:10063000F07007853E82853F8322C038C039C03ABA
:10064000C03B90000075F02074411217728582380B
:1006500085833985F03AF53BE58124FCF581C03C82
:10066000C03DC038C039C03AC03BC03EC03F749F97
:10067000C0E07400C0E07480C0E01218EBE5812493
:10068000F5F581853C82853D831216B9AC82AD8338
:10069000AEF0FFC004C005C006C007C004C005C05E
:1006A00006C00790409475F0D6743B121772A8826A
:1006B000A983AAF0FBE58124FCF581D007D006D000
:1006C00005D004C004C005C006C007C004C005C0F2
:1006D00006C007888289838AF0EB121772AA82AB60
:1006E00083A8F0F9E58124FCF581D007D006D00578
:1006F000D004C004C005C006C007C004C005C006C1
:10070000C0078A828B8388F0E9121772AA82AB83B2
:10071000A8F0F9E58124FCF581D007D006D005D0FA
:1007200004C004C005C006C007C004C005C006C0A0
:10073000078A828B8388F0E912177285824085834D
:100740004185F042F543E58124FCF581D007D006D0
:10075000D005D004C004C005C006C007C004C00551
:10076000C006C007908BE675F00F7440121772AA8E
:1007700082AB83A8F0F9E58124FCF581D007D0068F
:10078000D005D004C004C005C006C007C004C00521
:10079000C006C0078A828B8388F0E9121772AA828A
:1007A000AB83A8F0F9E58124FCF581D007D006D011
:1007B00005D004C004C005C006C007C004C005C001
:1007C00006C0078A828B8388F0E9121772AA82AB6F
:1007D00083A8F0F9E58124FCF581C002C003C000C4
:1007E000C0018540828541838542F0E54312197A34
:1007F00085824085834185F042F543E58124FCF5FF
:1008000081D007D006D005D004C004C005C006C002
:1008100007C004C005C006C00790DAEB75F08F74FE
:1008200043121772AA82AB83A8F0F9E58124FCF584
:10083000818A828B8388F0E9121772AA82AB83AC1B
:10084000F0FDE58124FCF581C002C003C004C005B1
:100850008540828541838542F0E54312187DAA8256
:10086000AB83ACF0FDE58124FCF58174D8C0E07465
:1008700013C0E0749DC0E074C9C0E08A828B838C91
:10088000F0ED12187DAA82AB83ACF0FDE58124FC6B
:10089000F581C002C003C004C005C002C003C0048B
:1008A000C00574D7C0E07400C0E07480C0E01218C6
:1008B000EBE58124F9F581853882853983853AF025
:1008C000E53B12199D85823885833985F03AF53BE1
:1008D000E58124FCF581C038C039C03AC03B74E9D9
:1008E000C0E07400C0E07480C0E01218EBE5812421
:1008F000F9F581853E82853F831216B9AE82AF83BA
:10090000A8F0F9E4C0E0C0E074B4C0E07443C0E013
:100910008E828F8388F0E912199DAA82AB83ACF096
:10092000FDE58124FCF581C002C003C004C005853B
:100930003882853983853AF0E53B12187D85823807
:1009400085833985F03AF53BE58124FCF581E4C0E7
:10095000E0C0E0C0E0C0E0853882853983853AF0A8
:10096000E53B121742AA82E58124FCF581EA602E5C
:10097000E4C0E0C0E07480C0E0743FC0E08538822D
:10098000853983853AF0E53B12187D858238858369
:100990003985F03AF53BE58124FCF58180B0E4C06F
:1009A000E0C0E07480C0E0743FC0E08538828539E3
:1009B00083853AF0E53B1216C5AA82E58124FCF551
:1009C00081EA602EE4C0E0C0E07480C0E0743FC003
:1009D000E0853882853983853AF0E53B12197A85BE
:1009E000823885833985F03AF53BE58124FCF58131
:1009F00080ACC038C039C03AC03B90000075F0B43C
:100A00007443121772AA82AB83ACF0FDE58124FC1B
:100A1000F581C002C003C004C005C038C039C03A67
:100A2000C03B74FEC0E07400C0E07480C0E01218E7
:100A3000EBE58124F9F581D005D004D003D0028AFA
:100A4000828B838CF0ED021985E4F544F545F5467B
:100A5000F5477410C0E07401C0E07480C0E0121863
:100A6000EB1581158115817415C0E07401C0E07427
:100A700080C0E01218EB1581158115817460C0E00B
:100A80007401C0E07480C0E01218EB158115811567
:100A9000817481C0E07401C0E07480C0E01218EB82
:100AA00015811581158174B0C0E07401C0E07480B7
:100AB000C0E01218EB15811581158174D7C0E07460
:100AC00001C0E07480C0E01218EB1581158115811A
:100AD00074FEC0E07401C0E07480C0E01218EB1531
:100AE00081158115817426C0E07402C0E07480C055
:100AF000E01218EB1581158115817441C0E0740274
:100B0000C0E07480C0E01218EB1581158115817466
:100B100055C0E07402C0E07480C0E01218EB15818B
:100B2000158115817478C0E07402C0E07480C0E063
:100B30001218EB1581158115817430C0E07400C066
:100B4000E07440C0E07487C0E07402C0E07480C00C
:100B5000E0121698E58124FAF581AA30AB31C3740E
:100B6000099AE49B40BEEA2A2A900B6D73020B8B14
:100B7000020BE5020C04020C29020DCC0213A102A7
:100B8000153302166802166802153FE4F529F52AA6
:100B900085253885263985273A85283B852C3C854F
:100BA0002D3D8536828537831206078582368583FB
:100BB00037C036C037748BC0E07402C0E07480C0A8
:100BC000E01218EBE58124FBF58175250075260000
:100BD000752700752800752C32E4F52D753201E477
:100BE000F533020B24752C32E4F52DE4F532F533A0
:100BF0009001F412045F752901E4F52AE4F52CF55F
:100C00002D020B24752C32E4F52DE4F532F53390EA
:100C100001F412045F752901E4F52A752C64E4F5EA
:100C20002DE4F532F533020B24749EC0E07402C04B
:100C3000E07480C0E01218EB1581158115817446AF
:100C4000C0E07400C0E07440C0E07487C0E074028B
:100C5000C0E07480C0E0121698E58124FAF5817432
:100C6000D8C0E07402C0E07480C0E01218EB1581B7
:100C700015811581E5464547703D7444C0E0740018
:100C8000C0E07440C0E07487C0E07402C0E07480CB
:100C9000C0E0121698E58124FAF581854415854552
:100CA00016900005121860AA82AB837432C39AF5BD
:100CB00044E49BF545803B7444C0E07400C0E0749C
:100CC00040C0E07487C0E07402C0E07480C0E012ED
:100CD0001698E58124FAF58185441585451690001E
:100CE00005121860E5828583F02432F544E435F07E
:100CF000F54574F6C0E07402C0E07480C0E01218DC
:100D0000EB1581158115817434C0E07400C0E07466
:100D100040C0E07487C0E07402C0E07480C0E0129C
:100D20001698E58124FAF5819001F412045F752C80
:100D300032E4F52DE4F532F5339001F412045F75D9
:100D40002901E4F52A85442C85452DC374E89534A2
:100D50007403953550149003E812045FE5342418A9
:100D6000F534E53534FCF53580E18534828535830D
:100D700012045F753201E4F533E4F529F52AF544F0
:100D8000F54585253885263985273A85283B852CE4
:100D90003C852D3D85368285378312060785823650
:100DA000858337C036C037748BC0E07402C0E074EE
:100DB00080C0E01218EBE58124FBF581E4F525F510
:100DC00026F527F528F530F531020B24749EC0E096
:100DD0007402C0E07480C0E01218EB158115811513
:100DE000817446C0E07400C0E07440C0E07487C005
:100DF000E07402C0E07480C0E0121698E58124FA25
:100E0000F58174D8C0E07402C0E07480C0E01218AC
:100E1000EB158115811581E5464547703D7444C049
:100E2000E07400C0E07440C0E07487C0E07402C0A9
:100E3000E07480C0E0121698E58124FAF5818544BB
:100E400015854516900005121860AA82AB8374328E
:100E5000C39AF544E49BF545803B7444C0E07400BC
:100E6000C0E07440C0E07487C0E07402C0E07480E9
:100E7000C0E0121698E58124FAF581854415854570
:100E800016900005121860E5828583F02432F5443F
:100E9000E435F0F5457404C0E07403C0E07480C02C
:100EA000E01218EB1581158115817434C0E07400CF
:100EB000C0E07440C0E07487C0E07402C0E0748099
:100EC000C0E0121698E58124FAF581C3E544943216
:100ED000E5456480948040030211057464C3954421
:100EE000F544E49545F5458544828545831219907E
:100EF000AA82AB83ACF0FDC002C003C004C005C031
:100F000002C003C004C00590409475F0D6743B1233
:100F10001772AE82AF83A8F0F9E58124FCF581D089
:100F200005D004D003D002C002C003C004C005C075
:100F300002C003C004C0058E828F8388F0E91217B7
:100F400072AE82AF83A8F0F9E58124FCF581D0056B
:100F5000D004D003D002C002C003C004C005C00248
:100F6000C003C004C0058E828F8388F0E912177217
:100F7000AE82AF83A8F0F9E58124FCF581D005D0DD
:100F800004D003D002C002C003C004C005C002C028
:100F900003C004C0058E828F8388F0E91217728522
:100FA000824885834985F04AF54BE58124FCF5812B
:100FB000D005D004D003D002C002C003C004C005D5
:100FC000C002C003C004C005908BE675F00F7440EA
:100FD000121772AE82AF83A8F0F9E58124FCF58187
:100FE000D005D004D003D002C002C003C004C005A5
:100FF000C002C003C004C0058E828F8388F0E9124E
:101000001772AE82AF83A8F0F9E58124FCF581D098
:1010100005D004D003D002C002C003C004C005C084
:1010200002C003C004C0058E828F8388F0E91217C6
:1010300072AE82AF83A8F0F9E58124FCF581C00689
:10104000C007C000C001854882854983854AF0E514
:101050004B12197A85824885834985F04AF54BE51C
:101060008124FCF581D005D004D003D002C002C099
:1010700003C004C005C002C003C004C00590DAEB81
:1010800075F08F7443121772AE82AF83A8F0F9E542
:101090008124FCF5818E828F8388F0E9121772AA71
:1010A00082AB83ACF0FDE58124FCF581C002C00376
:1010B000C004C005854882854983854AF0E54B1206
:1010C000187DAA82AB83ACF0FDE58124FCF5817428
:1010D000D8C0E07413C0E0749DC0E074C9C0E08A59
:1010E000828B838CF0ED12187DAA82AB83ACF0FD6D
:1010F000E58124FCF5817464C39544F544E4954589
:10110000F5450212A885448285458312199085828F
:101110004885834985F04AF54BC048C049C04AC05C
:101120004B90409475F0D6743B121772AE82AF8329
:10113000A8F0F9E58124FCF581C048C049C04AC047
:101140004B8E828F8388F0E9121772AE82AF83A82C
:10115000F0F9E58124FCF581C048C049C04AC04B84
:101160008E828F8388F0E9121772AE82AF83A8F067
:10117000F9E58124FCF581C048C049C04AC04B8EC6
:10118000828F8388F0E912177285824C85834D85A2
:10119000F04EF54FE58124FCF581C048C049C04AB6
:1011A000C04B908BE675F00F7440121772AE82AF91
:1011B00083A8F0F9E58124FCF581C048C049C04A04
:1011C000C04B8E828F8388F0E9121772AE82AF8394
:1011D000A8F0F9E58124FCF581C048C049C04AC0A7
:1011E0004B8E828F8388F0E9121772AE82AF83A88C
:1011F000F0F9E58124FCF581C006C007C000C001FC
:10120000854C82854D83854EF0E54F12197A858293
:101210004C85834D85F04EF54FE58124FCF581C06A
:1012200048C049C04AC04B90DAEB75F08F74431246
:101230001772AE82AF83A8F0F9E58124FCF581C076
:1012400048C049C04AC04B8E828F8388F0E912178C
:1012500072AE82AF83A8F0F9E58124FCF581C00667
:10126000C007C000C001854C82854D83854EF0E5E6
:101270004F12187DAE82AF83A8F0F9E58124FCF50A
:101280008174D8C0E07413C0E0749DC0E074C9C01C
:10129000E08E828F8388F0E912187DAA82AB83AC3E
:1012A000F0FDE58124FCF581E4C0E0C0E074B4C049
:1012B000E07443C0E08A828B838CF0ED12199DAA02
:1012C00082AB83ACF0FDE58124FCF5818534828519
:1012D0003583C002C003C004C0051216B9121772CC
:1012E000AA82AB83ACF0FDE58124FCF5818A828B78
:1012F000838CF0ED1219858582348583359001F455
:1013000012045F752C32E4F52DE4F532F5339001CB
:10131000F412045F752901E4F52A85442C85452DD6
:10132000C374E895347403953550149003E812049F
:101330005FE5342418F534E53534FCF53580E18576
:10134000348285358312045F753201E4F533E4F5A8
:1013500029F52AF544F54585253885263985273A26
:1013600085283B852C3C852D3D853682853783122B
:101370000607858236858337C036C037748BC0E058
:101380007402C0E07480C0E01218EBE58124FBF524
:1013900081E4F525F526F527F528F530F531020B22
:1013A00024E4F546F547904F3F1218517413C0E0FE
:1013B0007403C0E07480C0E01218EB15811581152C
:1013C000819001F412045F7444C0E07403C0E074BF
:1013D00080C0E01218EB1581158115817464C0E09E
:1013E0007403C0E07480C0E01218EB1581158115FC
:1013F000817493C0E07403C0E07480C0E01218EB05
:1014000015811581158174C3C0E07403C0E0748038
:10141000C0E01218EB1581158115817444C0E07489
:1014200000C0E07440C0E07487C0E07402C0E074A3
:1014300080C0E0121698E58124FAF58174FFB54466
:101440000874FFB54503020B2474FEB5440D74FF08
:10145000B54508754601E4F547803CE54520E73190
:10146000C374E8954474838545F063F08095F0403B
:1014700020751502E4F516854482854583121942CC
:10148000AA82AB837426C39AF53474029BF5358027
:10149000067534F47535017401B54606E4B54702A6
:1014A00080028055E4F532F53374D9C0E07403C08E
:1014B000E07480C0E01218EB1581158115811218B7
:1014C00015751502E4F51612190C8582158583161B
:1014D00090006412186085822C85832D1218157572
:1014E0001564E4F51612190C85823485833585342C
:1014F0008285358312045F809E74D9C0E07403C076
:10150000E07480C0E01218EB158115811581752CEF
:1015100064E4F52DE4F532F53385348285358312A4
:10152000045FE4F52CF52D85348285358312045F44
:10153000021497E4F546F547F544F545020B24E41B
:10154000F529F52A753201E4F53374E4C0E074033B
:10155000C0E07480C0E01218EB15811581158190F0
:1015600003E812045F85253885263985273A8528C2
:101570003B852C3C852D3D853682853783120607B9
:10158000858236858337C3E53694B4E537940040C9
:101590004F7468C39536F58274019537F58312163A
:1015A000B9AA82AB83ACF0FDC002C003C004C00581
:1015B00090000075F0607440121772AA82AB83AC81
:1015C000F0FDE58124FCF5818A828B838CF0ED129D
:1015D0001985858234858335752C64E4F52D804525
:1015E0008536828537831216B9AA82AB83ACF0FDAB
:1015F000C002C003C004C00590000075F0607440D4
:10160000121772AA82AB83ACF0FDE58124FCF58150
:101610008A828B838CF0ED1219858582348583351F
:10162000E4F52CF52DE4F52CF52DF532F533C374E6
:10163000E895347403953550129003E812045FE581
:10164000342418F534E53534FCF535853482853598
:101650008312045F753201E4F533752C32E4F52D05
:10166000E4F536F537020B24020B24122107AA8277
:10167000BA0810758220C00212211A758208122140
:101680001AD0028A822285826085836185F0628514
:10169000096390166B021CF5C008858108E50824D3
:1016A000FBF563E50824FBF886600886610886621E
:1016B00090166B121CF5D00822E4AC83AB82FAF9C9
:1016C000748E022138FFA8811818122160D2D133FC
:1016D000E6400730E70B7582012220E7067582009D
:1016E00022C2D1122142E97003F5822230D101B326
:1016F000E433F58222E515451660467A01E51525A5
:10170000E0F515E516334012F516E5829515E583EB
:10171000951640030A80E6C3E51613F516E5151382
:10172000F515C3E5829515F5F0E58395164005F5A9
:101730008385F082C3E51613F516E51513F515DA62
:10174000E122FFA8811818122160D2D133E64007A8
:1017500030E70B7582002220E70675820122C2D194
:10176000122142E97003F5822220D101B3E433F55E
:10177000822212220DBC00030221ACEF60FA30D5A8
:1017800002B2D1E583B4FF030221C2E582B4FF03B4
:101790000221C2258340072482400B0221AC24830E
:1017A0001450030221C2F582EA8DF0A4A8F0EA8E5B
:1017B000F0A428F8E435F0F9EB8DF0A428E935F031
:1017C000F9E433CA8FF0A429F9EA35F0FAEBF88E80
:1017D000F0A429F9EA35F0FAE433FBEC8DF0A42902
:1017E000F9EA35F0FAE43BFBE88FF0A42AFAEB358E
:1017F000F0FBE433CCFD8EF0A42AFAEB35F0FBE4E9
:101800003CFCED8FF0A42BFBEC35F0FC20E7031241
:1018100021DA02218B850A15850B16850C17850D9B
:1018200018904E6D75F0C6744112223BAA82AB83AC
:10183000ACF0FD74392AF50A74303BF50BE43CF545
:101840000CE43DF50DAA0CAB0D8A82747F5BF58329
:1018500022AA82AB838A0A8B0B750C00750D0022BD
:10186000E5828515F0A4C582C0F08516F0A4D0F0FD
:1018700025F0C5838515F0A42583F5832212220D5A
:101880007900E583B58202800D50031222A9E58319
:10189000C395821222C3E5D0C465D020E117EA2D9A
:1018A000FAEB3EFBEC3FFC500974011222C3EC44FE
:1018B00080FC02218BC3EA9DFAEB9EFBEC9FFC505F
:1018C0000FC3E499F9E49AFAE49BFBE49CFCB2D1DF
:1018D0001221DA02218B02211A85825E85835F85BF
:1018E000F060850E619018D60226E5C00885810853
:1018F000E50824FBF561E50824FBF8865E08865FB1
:101900000886609018D61226E5D00822C2D5E58355
:1019100030E70DD2D5E4C39582F582E49583F58353
:10192000E51630E70BE4C39515F515E49516F516A5
:101930001216F530D50BE4C39582F582E49583F554
:101940008322C2D5E58330E70DD2D5E4C39582F575
:1019500082E49583F583E51630E70DB2D5E4C395AF
:1019600015F515E49516F516121ABC30D50BE4C31F
:101970009582F582E49583F58322A8811818C6B272
:10198000E7C602187D7F8E122C94F58385F08222A3
:10199000AC83AB827A007900748E022CC212220DC5
:1019A00030D502B2D1BF0009BC00030221CF022111
:1019B000C2BC00030221ACE583B4FF0BE582B4FF97
:1019C000030221CF0221ACE582B4FF030221C2C38E
:1019D00095835007247F400B0221AC2480145003D0
:1019E0000221C2C0E0E4CCCBCAF98D158E168F1748
:1019F000EF54F0C4F5187583068518F0EB84F58272
:101A0000E9C4F9EAC4FAEBC4FBEC540FC47803D67A
:101A1000FC18EBD6FB18EAD6FA8582F0EDA4A8F004
:101A2000FD8582F0EEA428FEE435F0F88582F0EF23
:101A3000A428FFE435F0F8E99DF9EA9EFAEB9FFB54
:101A4000EC98FCAD15AE16AF1730E7101582E92DF6
:101A5000F9EA3EFAEB3FFBE43CFC80EDC082D58323
:101A600098C3E933F9EA33FAEB33FBEC33FCC3E90F
:101A70009DEA9EEB9FEC9400B3E413F9D002D0E012
:101A8000C44AFAD003D0E0C44BFBD004D0E0F5F058
:101A9000540FC44CFCD082158230F40FD3EC13FCED
:101AA000EB13FBEA13FAE913F90582E930E70A744C
:101AB000012AFAE43BFBE43CFC0221A37A10E4FB9C
:101AC000FCE58225E0F582E58333F583EB33FBEC1F
:101AD00033FCEB9515F5F0EC95164006FCABF043A6
:101AE0008201DADD22855082855183122F2685827C
:101AF0005FE55F600A0559E4B55906055A8002D2D0
:101B00000C855F82227A007B00300C0578677600B6
:101B100022C002C003121AE5AC82D003D002BC007E
:101B200002802DBC08028014BC09028023BC0A027A
:101B3000801EBC0D028019BC20218014EA4B60D1AC
:101B40001ABAFF011B155974FFB55902155A80C105
:101B5000EA4B60BDEA2467F8760022EC7009EA24BB
:101B600067F87600D20C22ECB55E07EA2467F876B7
:101B70000022C3EA940FEB940050968A058B060A64
:101B8000BA00010BED2467F8A604021B11AA827BA0
:101B90007FC3EA648094B0401174B98AF063F08026
:101BA00095F04006EA24D0FB8030C3EA648094C1FB
:101BB000401174C68AF063F08095F0400674C92A1B
:101BC000FB8017C3EA648094E1400F74E68AF063F7
:101BD000F08095F0400474A92AFBC3EB955B500399
:101BE0008B822275827F22AA8275550075560075F8
:101BF00057007558008A00E6FA60148A82C0001205
:101C00001B8DAB82D000C3EB955B40030880E88658
:101C1000038B82C000121B8DAA82D000C3E55B9AA1
:101C20004050855B157516007517007518008555B1
:101C3000828556838557F0E558C002C00012223BCA
:101C4000AB82AC83ADF0FED000D0028B558C568DAC
:101C5000578E58E4FBFCFDEA2555FAEB3556FBECB4
:101C60003557FCED3558FD8A558B568C578D5808E5
:101C7000809D8555828556838557F0E55822AA8236
:101C80007555007556007557007558008A00E6FBBB
:101C900060228B82C003C000121B8DAC82D000D0AA
:101CA00003C3EC955B400DBB2D028008BB2B02806B
:101CB000030880DA88028603BB2D03D38001C39218
:101CC0000FBB2D028003BB2B010A8A82121BE73057
:101CD0000F13C3E49555FAE49556FBE49557FCE4DD
:101CE0009558FD8008AA55AB56AC57AD588A828BE3
:101CF000838CF0ED22858250858351E4F559F55AA5
:101D0000F55DC20CAA60AB61AC628A828B838CF0F9
:101D1000122CE6FD74012AF560E43BF5618C62ED5E
:101D2000FA70030220FEBA25028003022097D20B2C
:101D3000C209755B00755C00C20DC20EAB60AC6180
:101D4000AD628B828C838DF0122CE6FAA3AB82AC51
:101D5000838B608C618D628B828C838DF0122CE67C
:101D6000F55E8A06BE300040168A06EE24C6400F95
:101D7000E55C75F00AA4FEEA24D02EF55C80C38AE7
:101D800006BE6100400A8A06EE248540035302DF46
:101D9000BA250280ADBA2A028057BA42028048BAF8
:101DA00043028052BA4403021EBABA4503021ED04F
:101DB000BA4603021ED0BA4703021ED0BA49030234
:101DC0001EBABA4C028025BA4E03021F25BA4F0331
:101DD000021EC0BA53028020BA5503021EB8BA5878
:101DE00003021EC8021F4DD209021D42D20A021D63
:101DF00042D20D021D42D20E200D17E56324FDF8DC
:101E00008863860308860408860518188B528C534D
:101E10008D54E55C700B300E047B0180027BFF8BE0
:101E20005C755B00C3E55B955C5005121AE5AA8200
:101E3000300C07E55B7003021F4DEA601ABA2002FE
:101E4000800DBA09028008BA0D028003BA0A033075
:101E50000E05E55CB55B1FE55B60C9200D12055DF5
:101E6000AB52AC53AD548B828C838DF0E4122F288F
:101E7000755B00021F4DBA081CE55B60A7200D11C1
:101E8000AB52AC53AD541BBBFF011C8B528C538D1A
:101E900054155B808F200D1BAB52AC53AD548B821D
:101EA0008C838DF0EA122F280BBB00010C8B528C17
:101EB000538D54055B021E24C20B755B0A021F4D35
:101EC000C20B755B08021F4DC20B755B10021F4DE4
:101ED000121B057867E66075200D72E56324FDF836
:101EE0008863866408866508866618188564528546
:101EF000655385665490006775F040122D02AE82DE
:101F0000AF83ABF0FC8564828565838566F0EE1255
:101F10002F28A3EF122F28A3EB122F28A3EC122FA8
:101F200028055D8028E56324FDF88863860308861C
:101F30000408860518188B528C538D548B828C8321
:101F40008DF0E559122F28A3E55A122F28E55B7072
:101F500003022097121B057867E670030220973072
:101F60000D03022097E56324FDF888638603088645
:101F70000408860518188B528C538D54055D200B70
:101F800003022010300A35855264855365855466F6
:101F9000758267121C7EAE82AF83ABF0FC856482D3
:101FA0008565838566F0EE122F28A3EF122F28A3F4
:101FB000EB122F28A3EC122F280220973009268538
:101FC0005264855365855466758267121C7EAE82A5
:101FD000AF83ABF0FC8564828565838566F0EE1285
:101FE0002F28022097855264855365855466758233
:101FF00067121C7EAE82AF83ABF0FC856482856580
:10200000838566F0EE122F28A3EF122F2802209767
:10201000300A34855264855365855466758267122B
:102020001BE7AE82AF83ABF0FC8564828565838558
:1020300066F0EE122F28A3EF122F28A3EB122F2801
:10204000A3EC122F288050300925855264855365F2
:10205000855466758267121BE7AE82AF83ABF0FCD6
:102060008564828565838566F0EE122F2880288539
:102070005264855365855466758267121BE7AE828C
:10208000AF83ABF0FC8564828565838566F0EE12D4
:102090002F28A3EF122F28200C03021D04AB60ACE5
:1020A00061AD628B828C838DF0122CE6FEA3AB8235
:1020B000AC838B608C618D62EEFA7003021D04BAF2
:1020C00025E18B828C838DF0122CE6FABA6E0280A9
:1020D00003BA4ECFE56324FDF888638602088606BE
:1020E00008860718188A528E538F548A828E838FDF
:1020F000F0E559122F28A3E55A122F2880A5AA5DD2
:102100007B008A828B832210980280FBAA998A82A4
:10211000C00212211AD0028A8222AA82BA0A0810A8
:10212000990280FB75990D10990280FB8A9922FC17
:10213000ABF0AA83A982749EC2D1F5821221DA0281
:10214000218B7901AA82E68F82B5821318E6B5F059
:102150000E18E6B5830918E68A82B5820279002254
:10216000B4800FE5F0700AE5837006E58270027FA7
:1021700000EFB6801518B6001018B6000B18B600A0
:102180000608080876002208080822B98003EA1326
:10219000B34010EA2401FAE43BFBE43CFC50047C2D
:1021A000800582BC000EBB000BBA0008E4F5F0F518
:1021B00083F58222A2D1E582138CF092F78B838A79
:1021C0008222E4F583F58275F080F4A2D11322E433
:1021D000F583F58275F0C0747F227804EC7011E508
:1021E0008224F8500AF582E4C9CACBFCD8EF22EC6D
:1021F0007820058220E713D5820122C3E933F9EA6A
:1022000033FAEB33FBEC33FCD8EA158222AA82AB1B
:1022100083A2F73392D16002D2F7F582ACF0E58168
:1022200024F9F8E6FD08E6FE0886F008E6A2F73392
:1022300092D56002D2F7F583AFF022AAF0FBE582D7
:102240008515F0A4FCADF0E5838515F0A42DFDE423
:1022500035F0FEE5828516F0A42DFDE5F03EFEE4A6
:1022600033FFEA8515F0A42EFEE5F03FFFE58385F8
:1022700016F0A42EFEE5F03FFFE5828517F0A42EB0
:10228000FEE5F03FFFEB8515F0A42FFFEA8516F081
:10229000A42FFFE5838517F0A42FFFE5828518F0B2
:1022A000A42F8EF08D838C8222E582C583F582A2D5
:1022B000D133A2D592D11392D5ECCFFCEBCEFBEA71
:1022C000CDFA226040F82582500274FFF582E8249E
:1022D000F8501ECCCBCAF9E4CC24F85014CBCAF980
:1022E000E4CB24F8500BCAF9E4CA24F8500379006F
:1022F0002224086010F8C3EC13FCEB13FBEA13FA7A
:10230000E913F9D8F122AA827417C0E07423C0E05F
:10231000C050C0518A82220557E4B55702055822A1
:10232000AA8274302AFA24C6500A74072AFA301096
:10233000034302208A82022306E582FAC4540FF581
:1023400082C002122320D002740F5AF58202232089
:10235000AA52AB53AC54AD55AE56755D20EE2EFE71
:10236000ED235401FF4206EA2AFAEB33FBEC33FC7F
:10237000ED33FDC3EE95594008EEC39559FE430277
:1023800001D55DD98A528B538C548D558E56227847
:1023900073E624D075F00AA4FA7874E624D02AFAF9
:1023A00078728603BB2D04C3E49AFA755901C3E41D
:1023B00064808AF063F08095F05029755D038A038C
:1023C00074F6255D401C0559E55D142467F8E55D4C
:1023D0002467F98704A604772E1BEBFA6004055DD9
:1023E00080DE8B02EA30E70D786886037869A60301
:1023F0007868762E0AE55B600AE55B04FB2559F5F3
:10240000598005301B02055978678603E4BB2D010E
:1024100004FB70062016033017020559301403021E
:1024200024D6301557EB600C75822DC0021223069E
:10243000D002801C30160C75822BC002122306D0ED
:1024400002800D30170A758220C002122306D002C6
:1024500078688604BC2E0C758230C002122306D028
:1024600002155AAC5A155AC3E5599C400302251A65
:10247000758230C002122306D00280E7AC5A155A8A
:10248000C3E5599C500C758220C002122306D0026D
:1024900080EA78678604BC2D0C75822DC002122359
:1024A00006D002801C30160C75822BC00212230647
:1024B000D002800D30170A758220C002122306D088
:1024C0000278688604BC2E52758230C00212230640
:1024D000D002155A8044EB600E75822DC002122383
:1024E00006D002155A802030160E75822BC00212BB
:1024F0002306D002155A800F30170C758220C002B7
:10250000122306D002155A78688603BB2E0C7582FA
:1025100030C002122306D002155A755D01C21DE5B6
:102520005D2467F88603BB45030225D7BB2E348A9A
:1025300003C3E464808BF063F08095F0500F7582E4
:1025400030C003122306D0031B8B0280E48B02D21F
:102550001DE55B7038201B030225D775822E1223E0
:10256000068074301D278A03EB30E71FC3E46480C4
:10257000855BF063F08095F0500C758230C00312DB
:102580002306D003155B0B8B0280DD8B02301D0E02
:10259000C3E46480855BF063F08095F05021E55DD5
:1025A0002467F886038B82C002122306D002301DF6
:1025B0000EE55D2467F88603BB2E028002155B15CD
:1025C0005AC3E46480855BF063F08095F04003209B
:1025D0001D05055D02251FC3E46480855BF063F083
:1025E0008095F0500A758230122306155B80E83022
:1025F000140FAA5A155AEA60087582201223068021
:10260000F122E55B7003301B0D7407255BFAE55A78
:10261000C39AF55A8006E55A24FAF55A755D007892
:10262000678602BA2B0F20160C78677620201705D4
:10263000755D01055A201419AA5AC3E464808AF012
:1026400063F08095F0500A758220122306155A8097
:10265000E7C21DE55D2467F88602BA00028069BA08
:10266000451F3010027665C3E46480855BF063F03B
:102670008095F0500A758230122306155B80E8D2EF
:102680001DC3E55D9402E433FA7014EA700EC3E4EE
:102690006480855BF063F08095F04003301D16E5A3
:1026A0005D2467F886028A82122306E55D24FD50C8
:1026B00012155B800E7402B55D09301B0675822E03
:1026C000122306055D022653301419AA5AC3E46486
:1026D000808AF063F08095F0500A758220122306FC
:1026E000155A80E722858250858351E4F557F558C5
:1026F000AA5EAB5FAC608A828B838CF0122CE6FD05
:1027000074012AF55EE43BF55F8C60EDFA7003021C
:102710002C8BBA25028003022C83C214C215C21668
:10272000C217C218C219C21AC21BC211C212C213E6
:10273000755900755A00755BFFAB5EAC5FAD608B81
:10274000828C838DF0122CE6FAA3AB82AC838B5E75
:102750008C5F8D60BA25078A8212230680928A06D2
:10276000BE3000402E8A06EE24C6402774FFB55BBB
:1027700013E55A75F00AA4FEEA24D02EF55A70BF6C
:10278000D21580BBE55B75F00AA4FEEA24D02EF5D5
:102790005B80ACBA2E0A74FFB55BA4755B00809FAA
:1027A0008A06BE6100400E8A06EE24854007530269
:1027B000DFD2108002C210BA20028075BA23030251
:1027C0002840BA2A03022845BA2B02805FBA2D029C
:1027D0008055BA4202805FBA430302288ABA440392
:1027E0000229C5BA45030229DFBA46030229DBBA2A
:1027F00047030229E3BA49030229C5BA4C02803BC8
:10280000BA4E030229E7BA4F030229CCBA50030299
:10281000295EBA53030228AEBA55030229D1BA5829
:10282000030229D6022A11D21402273FD216022708
:102830003FD21702273FD21902273FD21A02273F61
:10284000D21B02273F74FFB55B2030190BE56114E2
:10285000F88861865A02273FE56124FEF888618680
:1028600006088607188E5A02273F30190BE56114B7
:10287000F88861865B02273FE56124FEF88861865F
:1028800006088607188E5B02273F30190AE5611497
:10289000F888618602800FE56124FEF8886186036E
:1028A000088604188B028A82122306022A16E56122
:1028B00024FDF88861860308860408860518188BAD
:1028C000528C538D548B828C838DF0123060AB828E
:1028D000AC838B5C74FFB55B03855C5B20141DC30C
:1028E000E55C955A5016E55AC3955CF55AAB5A15F6
:1028F0005AEB600875822012230680F1855282858A
:1029000053838554F0122CE6FBFA6029AB5B155B10
:10291000C3E464808BF063F08095F050188A8212D3
:102920002306AB52AC53AD540BBB00010C8B528C45
:10293000538D5480C7201403022A16C3E55C955AB0
:102940004003022A16E55AC3955CF55AAB5A155A4C
:10295000EB7003022A1675822012230680EEE561D1
:1029600024FDF88861860308860408860518188BFC
:10297000528C538D54E554FB30E7047A438013EBBB
:10298000546060047A50800AEB30E6047A49800291
:102990007A588A82C00212230675823A122306757B
:1029A0008230122306758278122306D002BA4902B9
:1029B000800BBA50028006855382122339855282D9
:1029C0001223398051D21875590A804A75590880E6
:1029D0004575590A8040755910803BD2118037D215
:1029E000128033D213802FE56124FDF888618603BD
:1029F00008860408860518188B528C538D548B82D8
:102A00008C838DF0E557122F28A3E558122F2880CC
:102A1000058A82122306201106201203301370E566
:102A20006124FCF888618603088604088605088608
:102A3000061818188B528C538D548E55E552E55359
:102A4000E554E5558B828C838DF0EE122F4174FF97
:102A5000B55B03755B06301327747F5555FB8B56AA
:102A6000E556EB2BFB8B56E55430E70674014556D3
:102A7000F556E55624684006749925564002D21250
:102A80003012061226020226F012238F0226F0E5EB
:102A90005970030226F07B6C30192BE56114F8881D
:102AA00061E6FC3395E0FDFEFF8C528D538E548F12
:102AB0005520185EAC527D007E007F008C528D53F5
:102AC0008E548F55804C301A1FE56124FCF88861C4
:102AD00086040886050886060886071818188C528A
:102AE0008D538E548F55802AE56124FEF8886186C7
:102AF0000408860518ED3395E0FEFF8C528D538E49
:102B0000548F5520180CAC52AD537E007F008E546C
:102B10008F55301B43E55245534554455560397434
:102B200008B5590C758230C003122306D0038028E3
:102B30007410B55923758230C003122306D00330B8
:102B4000100C758278C003122306D003800A7582A8
:102B500058C003122306D003301825AC52AD53AE33
:102B600054E555FF30E717C3E49CFCE49DFDE49E6B
:102B7000FEE49FFF8C528D538E548F558002C218F5
:102B8000755C00D21C8B00755600C000122350D01B
:102B900000201C0DE556C4FCE6FD4CF618880380A9
:102BA00002A656055CB21CE5524553455445557086
:102BB000D68803E55A7003755A0120151A20141798
:102BC000E55C04FCC3955A500E758220C0031223A5
:102BD00006D003155A80E930180E75822DC00312F5
:102BE0002306D003155A8024E55C602030160E754C
:102BF000822BC003122306D003155A800F30170C06
:102C0000758220C003122306D003155A20141EAC6F
:102C10005A155AC3E55C9C50273015047C3080025D
:102C20007C208C82C003122306D00380E2C3E55CC3
:102C3000955A5009E55AC3955CF55A8003755A00B8
:102C40008B00AB5C155CEB6022B21C201C0A08E612
:102C5000C4540FFB8B5680078603740F5BF55685B3
:102C60005682C000122320D00080D72014030226F1
:102C7000F0AB5A155AEB70030226F075822012232E
:102C80000680EE8A821223060226F0855782855836
:102C900083227F9E12308830D1030221ACC3EF958E
:102CA00082500974FFF5F0F583F582227900122233
:102CB000C389828A838BF0EC22FCABF0AA83A982C1
:102CC000749EF582C2D1EC30E716D2D1E9F424012A
:102CD000F9EAF43400FAEBF43400FBECF43400FCD1
:102CE0001221DA02218B20F71430F6148883A8828F
:102CF00020F507E6A88375830022E280F7E493229B
:102D0000E022AA82AB83ACF0751300751400C220D8
:102D10008A058B068C078D828E838FF0122CE6F845
:102D2000B820028003B809070DBD00EA0E80E78DC8
:102D3000028E038F04B82D0DD21E74012DFAE43ECD
:102D4000FB8F04800EC21EB82B0974012DFAE43EDD
:102D5000FB8F04750F007510007511007512008A45
:102D6000058B068C078D828E838FF0122CE6F8F986
:102D7000B930004005E824C650128D828E838FF052
:102D8000122CE6F8B82E028003022E378D828E8335
:102D90008FF0122CE6F9B92E05D220022E2FC00595
:102DA000C006C007C005C006C007C001C00FC010E4
:102DB000C011C01290000075F02074411217728586
:102DC000820F85831085F011F512E58124FCF581D1
:102DD000D001D007D006D005E93395E0FDE924D035
:102DE000F582ED34FFF583121990AD82AE83AFF01A
:102DF000F9C005C006C007C005C006C007C00185F0
:102E00000F828510838511F0E51212187D85820FDF
:102E100085831085F011F512E58124FCF581D0073A
:102E2000D006D005D007D006D00530200215130DEE
:102E3000BD00010E022D655300DF8D828E838FF061
:102E4000E8122F28B8456274012DFAE43EFB8F0486
:102E50008A828B838CF0122CE6FDBD2D09D21F0ACD
:102E6000BA000D0B800AC21FBD2B050ABA00010B68
:102E70007514008A828B838CF0122CE6FDFEBE3026
:102E800000401D8D06EE24C64016E51475F00AA418
:102E9000F514ED24D02514F5140ABA00D60B80D30E
:102EA000301F06C3E49514F514E5132514F514E555
:102EB000146055E51430E728C00FC010C011C012CF
:102EC00090CCCD75F0CC743D12177285820F85833E
:102ED0001085F011F512E58124FCF581051480CFF1
:102EE000C00FC010C011C01290000075F0207441D6
:102EF00012177285820F85831085F011F512E58116
:102F000024FCF581151480A7301E0F850F0F851046
:102F100010851111E512B2E7F512850F8285108335
:102F20008511F0E51222E47320F71030F611888342
:102F3000A88220F507F6A88375830022F280F7F0B7
:102F400022C0E0F84582458345F07009F5F0FBFCAE
:102F5000FDFE02300FE823A2F792E0F8A982AA83CF
:102F6000D2F7ABF07C007E07C3749798404074FFA3
:102F70002EFE740A89F0A4F985F082740A8AF0A4FE
:102F8000FA85F083740A8BF0A4FB740529F9EA35FD
:102F900082FAEB3583FB740035F0FCC3EC13FCEBD9
:102FA00013FBEA13FAE913F908EC70EF80BAE8C3EF
:102FB000947FF88B838EF0E4FBFCFDFEFF08C3E9F1
:102FC00033F9EA33FAE58333F583EB3BD4FBEC3C8E
:102FD000D4FCED3DD4FDEE3ED4FEEF3FD4FF602D9A
:102FE00005F074052BD4FBE43CD4FCE43DD4FDE4B3
:102FF0003ED4FEE43FD4FF758204C3EF13FFEE130B
:10300000FEED13FDEC13FCEB13FBD582EDD8AF788E
:1030100067D0E020E704762B8002762D087906E75A
:10302000C4540F4430F608B90603762E08E7540F4F
:103030004430F60819B902E7764508E5F020E704C0
:10304000762B8004762DF4040875F00A844430F65B
:1030500008E5F04430F608E4F690006775F0402289
:10306000AA82AB83ACF07D007E008A828B838CF0D9
:10307000122CE6FFA3AA82AB83EF60070DBD00EA26
:103080000E80E78D828E8322AA82AB83A2F73392D1
:10309000D16002D2F7F582ACF022000000000000FF
:00000001FF
