:03000000020245B4
:0100030032CA
:03000B0002017F70
:0100130032BA
:01001B0032B2
:0100230032AA
:03002B0002019B34
:10002E00C00078B10000D8FCD00022C000C0017919
:10003E002D78A6D8FED9FADAF6D001D00022D293C6
:10004E0012002EC29322A2E792B5A2E692B4A2E5C6
:10005E0092B3A2E492B212004C12002EA2E392B519
:10006E00A2E292B4A2E192B3A2E092B212004C22AA
:10007E00D291020054C291020054C293C2927433C0
:10008E0012008374331200837432120083742812A8
:10009E000083740C1200837401120083C0027A0272
:1000AE00120039D00222E493600612007EA380F67D
:1000BE002244404480020083C0E0E8C4540F443020
:1000CE0012007EE8540F443012007ED0E0225765B5
:1000DE006C636F6D65210078783A78783A7878009D
:1000EE00434C4F434B005745454B444159204D4FD0
:1000FE004445005745454B454E44204D4F44450021
:10010E0053554E444159202020004D4F4E444159E5
:10011E002020200054554553444159202000574576
:10012E00444E455344415900544855525344415945
:10013E002000465249444159202020005341545535
:10014E00524441592000414D00504D0020002020C6
:10015E002020202020202000E58954F04401F5893C
:10016E00758C53758A3475F45375F234D2A9D28CCA
:10017E0022B2B73275C80075CD5375CC3475CB53DA
:10018E0075CA34E4F530F531D2ADD2CA22C2CFB23F
:10019E00B6C0E0C0D00530E53070020531E530B4B0
:1001AE00F47DE531B40178D200B28CE4F530F5314E
:1001BE00E532B4594F7400D4F532E533B4593C747A
:1001CE0000D4F533E535B40009E534B412247401D6
:1001DE008007E534B4111B7400D4F534E535B40151
:1001EE002C7400D4F535E536B4062B7400D4F536F0
:1001FE00802DE5342401D4F5348024E5332401D454
:10020E00F533801BE5322401D4F5328012E5352416
:10021E0001D4F5358009E5362401D4F5368000D0B9
:10022E00D0D0E032C0E07401120083C0027A021214
:10023E000039D002D0E02275817F12016612018250
:10024E0075E60075E700D2AF120088C0E0740114A5
:10025E001200C1D0E0C083C082C0E09000DC12006A
:10026E00B4D0E0D082D083C0027A64120039D002BA
:10027E00D2007532007533597534117536037535E4
:10028E0001120232C0E07401141200C1D0E0C0832A
:10029E00C082C0E09000E51200B4D0E0D082D083DE
:1002AE0020800FC0027A32120039D0022080033033
:1002BE00805320840FC0027A32120039D00220847B
:1002CE00033084443000D9C200C0E074011412001F
:1002DE00C1D0E0C000A8341200C6D000C0E0740443
:1002EE00141200C1D0E0C000A8331200C6D000C066
:1002FE00E07407141200C1D0E0C000A8321200C68C
:10030E00D000020319020403020403C0E0740A14AD
:10031E001200C1D0E0E535B40015C083C082C0E044
:10032E009001541200B4D0E0D082D083020352C0A8
:10033E0083C082C0E09001571200B4D0E0D082D0CA
:10034E0083020352C0E07401141200BFD0E0E53600
:10035E00B40015C083C082C0E090010E1200B4D06C
:10036E00E0D082D0830202AEB40115C083C082C039
:10037E00E09001181200B4D0E0D082D0830202AE19
:10038E00B40215C083C082C0E09001221200B4D026
:10039E00E0D082D0830202AEB40315C083C082C007
:1003AE00E090012C1200B4D0E0D082D0830202AED5
:1003BE00B40415C083C082C0E09001361200B4D0E0
:1003CE00E0D082D0830202AEB40515C083C082C0D5
:1003DE00E09001401200B4D0E0D082D0830202AE91
:1003EE00C083C082C0E090014A1200B4D0E0D08237
:1003FE00D0830202AE120232C0E07404141200C1A5
:10040E00D0E0C083C082C0E09000E51200B4D0E01E
:10041E00D082D08320800FC0027A32120039D002EF
:10042E0020800330801FC0E07402141200BFD0E0A1
:10043E00C083C082C0E09000F41200B4D0E0D0823D
:10044E00D083020422C0E07404141200C1D0E0C0B4
:10045E0083C082C0E09000E51200B4D0E0D082D01C
:10046E008320800FC0027A32120039D0022080031E
:10047E0030801FC0E07402141200BFD0E0C083C0F1
:10048E0082C0E09001011200B4D0E0D082D083028D
:05049E00046F02028F53
:00000001FF
