:1000000002002E7509002200000000000000000020
:100020000000000000000000000000020172758165
:1000300028120109E582600302009A780079007AAB
:10004000007B007C007D00EC4D601C88828983E48D
:1000500093A3A882A9838A828B83F0A3AA82AB830D
:100060001CBCFFE31D80E07582007583007C007D71
:1000700000EC4D600AE4F0A31CBCFFF51D80F27596
:1000800082007583007C007D00EC4D600AE4F0A3E3
:100090001CBCFFF51D80F212000312019A80FE1BAA
:1000A0005B324A0053717561726520776176652015
:1000B00067656E657261746F7220666F7220746816
:1000C000652045464D384C42312E0D0A4368656324
:1000D0006B2070696E732050322E3020616E642068
:1000E00050322E31207769746820746865206F73F0
:1000F00063696C6C6F73636F70652E0D0A003C4E04
:100100004F20464C4F41543E0075A7007597DE7551
:1001100097AD75FF8075EF0675A71075C12075A79F
:100120000075A90075A900E5A930E7FB75A903755D
:10013000A903E5A930E7FB43A41075E10175E200CE
:1001400075E340759810758DE6858D8B53890F4347
:100150008920D28ED29975C800438E1075CAE07579
:10016000CBE375CEFF75CFFFD2ADD2CAD2AF7582C9
:100170000022C0E0C0D075D000C2CF0509E5092437
:100180009B5003750900E50924B49291E50924B454
:100190009200B39292D0D0D0E032749FC0E074004D
:1001A000C0E07480C0E01201DB15811581158174F7
:1001B000A4C0E07400C0E07480C0E01201DB1581CF
:1001C0001581158180FE02081C85821985831A8598
:1001D000F01B850A1C9001C6020285C008858108B3
:1001E000E50824FBF51CE50824FBF8861908861AA7
:1001F00008861B9001C6120285D00822AA82740DBF
:10020000C0E07402C0E0C00BC00C8A82220512E478
:10021000B51202051322AA8274302AFA24C6500AA3
:1002200074072AFA3001034302208A820201FCE5A6
:1002300082FAC4540FF582C002120216D002740F63
:100240005AF582020216AA0DAB0EAC0FAD10AE111C
:10025000751820EE2EFEED235401FF4206EA2AFA1D
:10026000EB33FBEC33FCED33FDC3EE95144008EEAD
:10027000C39514FE430201D518D98A0D8B0E8C0F3D
:100280008D108E112285820B85830CE4F512F513F7
:10029000AA19AB1AAC1B8A828B838CF0120831FD31
:1002A00074012AF519E43BF51A8C1BEDFA70030270
:1002B0000815BA2502800302080DC205C206C2074E
:1002C000C208C209C20AC20BC20CC202C203C204E3
:1002D0007514007515007516FFAB19AC1AAD1B8BA4
:1002E000828C838DF0120831FAA3AB82AC838B1918
:1002F0008C1A8D1BBA25078A821201FC80928A060D
:10030000BE3000402E8A06EE24C6402774FFB51684
:1003100013E51575F00AA4FEEA24D02EF51570BF7A
:10032000D20680BBE51675F00AA4FEEA24D02EF5AD
:100330001680ACBA2E0A74FFB516A4751600809FFD
:100340008A06BE6100400E8A06EE248540075302ED
:10035000DFD2018002C201BA20028075BA230302F3
:1003600003E0BA2A030203E5BA2B02805FBA2D022A
:100370008055BA4202805FBA430302042ABA44039A
:10038000020565BA450302057FBA460302057BBA3A
:100390004703020583BA4903020565BA4C02803B54
:1003A000BA4E03020587BA4F0302056CBA50030226
:1003B00004FEBA530302044EBA5503020571BA583B
:1003C000030205760205B1D2050202DFD20702025E
:1003D000DFD2080202DFD20A0202DFD20B0202DF02
:1003E000D20C0202DF74FFB51620300A0BE51C1494
:1003F000F8881C86150202DFE51C24FEF8881C869E
:1004000006088607188E150202DF300A0BE51C1459
:10041000F8881C86160202DFE51C24FEF8881C867C
:1004200006088607188E160202DF300A0AE51C1439
:10043000F8881C8602800FE51C24FEF8881C8603C1
:10044000088604188B028A821201FC0205B6E51C9C
:1004500024FDF8881C860308860408860518188B76
:100460000D8C0E8D0F8B828C838DF0120866AB8203
:10047000AC838B1774FFB5160385171620051DC3B3
:10048000E51795155016E515C39517F515AB151518
:1004900015EB60087582201201FC80F1850D8285C4
:1004A0000E83850FF0120831FBFA6029AB16151682
:1004B000C3E464808BF063F08095F050188A821258
:1004C00001FCAB0DAC0EAD0F0BBB00010C8B0D8C0A
:1004D0000E8D0F80C72005030205B6C3E5179515DD
:1004E00040030205B6E515C39517F515AB151515AF
:1004F000EB70030205B67582201201FC80EEE51C4C
:1005000024FDF8881C860308860408860518188BC5
:100510000D8C0E8D0FE50FFB30E7047A438013EB53
:10052000546060047A50800AEB30E6047A49800215
:100530007A588A82C0021201FC75823A1201FC7557
:1005400082301201FC7582781201FCD002BA490295
:10055000800BBA50028006850E8212022F850D8212
:1005600012022F8051D20975140A804A751408802E
:100570004575140A8040751410803BD2028037D232
:10058000038033D204802FE51C24FDF8881C8603E9
:1005900008860408860518188B0D8C0E8D0F8B822B
:1005A0008C838DF0E51212084DA3E51312084D80DF
:1005B000058A821201FC20020620030330045AE55A
:1005C0001C24FCF8881C8603088604088605088617
:1005D000061818188B0D8C0E8D0F8E10750DFE756C
:1005E0000E00750F80850D1D850E1E850F1F740171
:1005F000251DFEE4351EFFAB1F8E0D8F0E8B0F8564
:100600001D82851E83851FF0120831FBFA700302DC
:1006100002908A821201FC80CCE5147003020290E1
:100620007B28300A2BE51C14F8881CE6FC3395E087
:10063000FDFEFF8C0D8D0E8E0F8F1020095EAC0D10
:100640007D007E007F008C0D8D0E8E0F8F10804CF4
:10065000300B1FE51C24FCF8881C8604088605085E
:1006600086060886071818188C0D8D0E8E0F8F10B1
:10067000802AE51C24FEF8881C860408860518EDEF
:100680003395E0FEFF8C0D8D0E8E0F8F1020090C20
:10069000AC0DAD0E7E007F008E0F8F10300C43E549
:1006A0000D450E450F451060397408B5140C758260
:1006B00030C0031201FCD00380287410B5142375D8
:1006C0008230C0031201FCD00330010C758278C067
:1006D000031201FCD003800A758258C0031201FC8A
:1006E000D003300925AC0DAD0EAE0FE510FF30E79D
:1006F00017C3E49CFCE49DFDE49EFEE49FFF8C0D8B
:100700008D0E8E0F8F108002C209751700D20D8BCF
:1007100000751100C000120246D000200D0DE51139
:10072000C4FCE6FD4CF61888038002A6110517B23A
:100730000DE50D450E450F451070D68803E5157083
:100740000375150120061A200517E51704FCC3954B
:1007500015500E758220C0031201FCD003151580C0
:10076000E930090E75822DC0031201FCD003151566
:100770008024E517602030070E75822BC00312011C
:10078000FCD0031515800F30080C758220C00312B1
:1007900001FCD003151520051EAC151515C3E51772
:1007A0009C50273006047C3080027C208C82C00361
:1007B0001201FCD00380E2C3E51795155009E51539
:1007C000C39517F51580037515008B00AB1715172A
:1007D000EB6022B20D200D0A08E6C4540FFB8B110A
:1007E00080078603740F5BF511851182C000120229
:1007F00016D00080D7200503020290AB151515EB2B
:1008000070030202907582201201FC80EE8A82122F
:1008100001FC02029085128285138322AA82BA0A01
:100820000810990280FB75990D10990280FB8A9936
:100830002220F71430F6148883A88220F507E6A852
:100840008375830022E280F7E49322E02220F710F0
:1008500030F6118883A88220F507F6A883758300F7
:1008600022F280F7F022AA82AB83ACF07D007E00FA
:100870008A828B838CF0120831FFA3AA82AB83EFAC
:1008800060070DBD00EA0E80E78D828E8322000096
:00000001FF
