:1000000002000E00000000000000000205F67581ED
:100010008C120576E582600302007A780079007A16
:10002000007B007C007D00EC4D601C88828983E4AD
:1000300093A3A882A9838A828B83F0A3AA82AB832D
:100040001CBCFFE31D80E07582007583007C007D91
:1000500000EC4D600AE4F0A31CBCFFF51D80F275B6
:1000600082007583007C007D00EC4D600AE4F0A303
:100070001CBCFFF51D80F21203161208CB80FE1B7C
:100080005B324A0041444320746573742070726F80
:100090006772616D0A46696C653A2025730A436F81
:1000A0006D70696C65643A2025732C2025730A0AEB
:1000B00000433A5C55736572735C436C6172655CB6
:1000C0004F6E6544726976655C5B5542435D2055B1
:1000D0006E6465677261647561746520536F7068E2
:1000E0006F6D6F72655C454C454332393120284352
:1000F000616C76696E6F2D46726167612C204A656E
:10010000737573295C4C616220355C417474656D54
:10011000707420315C45464D385F4144435F416413
:10012000762E63004D617220203720323031390045
:1001300031313A31353A3234000D5369676E616CB2
:1001400073204E4F5420617661696C61626C652149
:100150002028776169742032207365636F6E647341
:100160002920202020202020202020202020202086
:100170002020202020202020004572726F723A003B
:10018000436865636B20636F6E736F6C6521000D50
:100190004E6F207369676E616C20617420746573A3
:1001A0007420736F757263652028776169742032DB
:1001B000207365636F6E6473292020202020202027
:1001C000202020202020202020202020202020202F
:1001D000202020202020000D4E6F207369676E6163
:1001E0006C206174207265666572656E636520734C
:1001F0006F7572636520287761697420322073659A
:10020000636F6E647329202020202020202020206E
:1002100020202020202020202020202020202000FE
:100220000D5369676E616C73206861766520766135
:100230007279696E67206672657175656E6369654E
:1002400073212028776169742032207365636F6E93
:1002500064732920202020202020202020202020FE
:1002600020202020202020000D703D25372E3066D4
:100270006D732C20663D25342E3266487A2C20562C
:10028000313D25372E35662C2056323D25372E350B
:10029000662C20636F756E7465723D25692C20692C
:1002A0006E74657276616C3D2569202020202020C7
:1002B00020202020202020200050686173652064C9
:1002C0006966662028646567293A002566000D473F
:1002D0006174686572696E6720646174612E2E2E88
:1002E000202020202020202020202020202020200E
:1002F00020202020202020202020202020202020FE
:1003000020202020202020202020202020202020ED
:10031000202020202000E4F528F529E4F52AF52BFB
:10032000E4F52CF52DE4F52EF52FE4F530F531E468
:10033000F532F533E4F534F535E4F536F53722AA30
:1003400082438E407592B87593FF859294859395FC
:100350007591047B00C3EB9A500BE59130E7FB539A
:10036000917F0B80F075910022AA82AB837C007D87
:1003700000C3EC9AED9B502B7E00BE0400501D750F
:1003800082FAC002C003C004C005C00612033FD0F9
:1003900006D005D004D003D0020E80DE0CBC00D104
:1003A0000D80CE22D2A575822812033FC2A522AAB3
:1003B000828AE0A2E792A1A2E692A2A2E592A3A27B
:1003C000E492A4C0021203A475822812033FD00253
:1003D0008AE0A2E392A1A2E292A2A2E192A3A2E009
:1003E00092A40203A4AA82D2A68A821203AF90002A
:1003F00002020369AA82C2A68A821203AF90000594
:10040000020369C2A59000141203697582331203B6
:10041000F47582331203F47582321203F475822864
:100420001203F475820C1203F47582011203F49026
:10043000001402036985822585832685F0277DC007
:100440007E007F807800C374019523E495245018C2
:10045000E52324FFF9E52434FFFA74C029FDE43ACA
:10046000FE748029FFE43AF87402B522068D028EEC
:100470000380048F0288038A821203F4900005121D
:1004800003697A007B00EA2525FCEB3526FDAE27C3
:100490008C828D838EF0120FA5FC60148C82C002BA
:1004A000C0031203E5D003D0020ABA00D90B80D6EC
:1004B000300020C3EA9410EB64809480501575825C
:1004C00020C002C0031203E5D003D0020ABA00E341
:1004D0000B80E02285821685831785F018E4FDFEE7
:1004E000E51424FFFFE51534FFF8E4F519F51AC308
:1004F000E5199FE51A648088F063F08095F0505B01
:10050000E5192516FBE51A3517FCAA188B828C8392
:100510008AF0120FA5FABA0A028003BA0D19ED2566
:1005200011FBEE3512FCA9138B828C8389F0E41247
:1005300011938D828E8322E5192511FBE51A351260
:10054000FCA9138B828C8389F0EA1211930519E4BC
:10055000B51902051AAD19AE1A8094ED2511FDEEFC
:100560003512FEAA138D828E838AF0E412119385D0
:1005700014828515832275A7007597DE7597AD7572
:10058000FF8075EF0675A71075C12075A70075A9C6
:100590000075A900E5A930E7FB75A90375A903E576
:1005A000A930E7FB43A41075E10175E20075E34053
:1005B000C28CC28D438E045389F0438901758A60D1
:1005C000758C73D2A9D28CD2AF759810758DE685D3
:1005D0008D8B53890F438920D28ED2997582002248
:1005E000E4F528F529F52AF52BF52CF52DF52EF552
:1005F0002FD2A9D28C22C0E0C0D075D00075A70040
:10060000758A60758C737401B52A06E4B52B028077
:1006100002800B74012528F528E43529F529740199
:10062000B52E06E4B52F028002800B7401252CF54F
:100630002CE4352DF52D7401B53206E4B533028076
:1006400002800B74012530F530E43531F531D0D01E
:10065000D0E03275A70075B28075BCF875B91E750B
:10066000E80075DF3F75B300D2EF22AA82851BF048
:1006700005F07401800225E0D5F0FBFB75A720BAD8
:100680000002800ABA0102800FBA021E8014EBF445
:10069000FA52F1EB42D48012EBF4FA52F2EB42D56B
:1006A0008008EBF4FA52F3EB42CC75A70022858266
:1006B000BBD2EC20ECFDD2EC20ECFD85BD8285BEEA
:1006C00083221206AE120FC1AA82AB83ACF0FDC02A
:1006D00002C003C004C005906C8B75F053744012C7
:1006E0001061AA82AB83ACF0FDE58124FCF581E4C6
:1006F000C0E074FCC0E0747FC0E07446C0E08A8251
:100700008B838CF0ED12124CAA82AB83ACF0FDE52A
:100710008124FCF5818A828B838CF0ED22AA82AB46
:1007200083C002C003E4C0E0C0E0C0E07440C0E0A9
:10073000853882853983853AF0E53B12124CAC82CC
:10074000AD83AEF0FFE58124FCF5818C828D838E34
:10075000F0EF120FFDAC82AD83D003D002EAC39C50
:10076000FAEB9DFBC002C003C038C039C03AC03BA1
:1007700090000075F0B4744312124CAC82AD83AE9D
:10078000F0FFE58124FCF581D003D0028A828B83BF
:10079000C004C005C006C007120FC1121061AA82B2
:1007A000AB83ACF0FDE58124FCF581C002C003C041
:1007B00004C005E4C0E0C0E07434C0E07443C0E0AD
:1007C0008A828B838CF0ED120FCDAE82E58124FC02
:1007D000F581D005D004D003D002EE7035C002C040
:1007E00003C004C005E4C0E0C0E07434C0E074C3DA
:1007F000C0E08A828B838CF0ED121031AE82E581ED
:1008000024FCF581D005D004D003D002EE700302A1
:1008100008C3C002C003C004C005E4C0E0C0E07467
:1008200034C0E074C3C0E08A828B838CF0ED121078
:1008300031AE82E58124FCF581D005D004D003D00F
:1008400002EE6027E4C0E0C0E074B4C0E07443C0CE
:10085000E08A828B838CF0ED121104AA82AB83AC08
:10086000F0FDE58124FCF5810207ABC002C003C0A6
:1008700004C005E4C0E0C0E07434C0E07443C0E0EC
:100880008A828B838CF0ED120FCDAE82E58124FC41
:10089000F581D005D004D003D002EE70030207AB7F
:1008A000C002C003C004C00590000075F0B47443DA
:1008B000121241AA82AB83ACF0FDE58124FCF581E4
:1008C0000207AB8A828B838CF0ED22753C00753D6C
:1008D00000753E00753F007540007541007542008F
:1008E00075430075440075450075460075470075F1
:1008F0004800754900754A00E4F54BF54CF54DF597
:1009000067F568F569E4F56AF55FF560756164E4BB
:10091000F5629001F4120369747FC0E07400C0E0D6
:100920007480C0E0121172158115811581120403C3
:100930001205E07430C0E07401C0E07480C0E0745F
:1009400024C0E07401C0E07480C0E074B1C0E07401
:1009500000C0E07480C0E07484C0E07400C0E07443
:1009600080C0E0121172E58124F4F581751B0175D8
:10097000820112066B751B0275820112066B12064C
:10098000537582071206C2AA82AB83ACF0FD8A3C83
:100990008B3D8C3E8D3F7582081206C2AA82AB83C6
:1009A000ACF0FD8A408B418C428D43E4C0E0C0E056
:1009B000C0E0C0E0853C82853D83853EF0E53F1286
:1009C0000FCDAA82E58124FCF581EA600FE52A4576
:1009D0002B7009752A01E4F52B020A56E4C0E0C029
:1009E000E0C0E0C0E0853C82853D83853EF0E53F88
:1009F000120FCDAA82E58124FCF581EA702C7401E6
:100A0000B52A06E4B52B028002801F85288285293D
:100A100083120FC1AA82AB83ACF0FD8A448B458C54
:100A2000468D47E4F52AF52B802CE4C0E0C0E0C0F9
:100A3000E0C0E0853C82853D83853EF0E53F120FB6
:100A4000CDAA82E58124FCF581EA700AE52A452BCE
:100A50007004F528F529E4C0E0C0E0C0E0C0E085FE
:100A600040828541838542F0E543120FCDAA82E59D
:100A70008124FCF581EA600FE52E452F7009752E63
:100A800001E4F52F020B01E4C0E0C0E0C0E0C0E0EB
:100A90008540828541838542F0E543120FCDAA82CD
:100AA000E58124FCF581EA702C7401B52E06E4B5CD
:100AB0002F028002801F852C82852D83120FC1AAF0
:100AC00082AB83ACF0FD8A488B498C4A8D4BE4F5B0
:100AD0002EF52F802CE4C0E0C0E0C0E0C0E08540EF
:100AE000828541838542F0E543120FCDAA82E581DC
:100AF00024FCF581EA700AE52E452F7004F52CF5EB
:100B00002DE561B55F07E562B560028003020F6BFA
:100B1000E544454545468547F0C2F745F0705AE53E
:100B2000484549454A854BF0C2F745F0704B74394A
:100B3000C0E07401C0E07480C0E01211721581152C
:100B4000811581752201752301E4F524D2009001FD
:100B50007975F080120435752202752301E4F524BD
:100B6000D20090018075F0801204359007D01203F6
:100B700069E4F534F535020F64E54445454546859D
:100B800047F0C2F745F0600FE5484549454A854BB7
:100B9000F0C2F745F07071E544454545468547F09C
:100BA000C2F745F07017748FC0E07401C0E0748024
:100BB000C0E0121172158115811581801574D7C09E
:100BC000E07401C0E07480C0E012117215811581DB
:100BD0001581752201752301E4F524D20090017975
:100BE00075F080120435752202752301E4F524D2D4
:100BF0000090018075F0801204359007D0120369CF
:100C0000E4F534F535020F64854863854964854A07
:100C100065854B66E4C0E07450C0E074C3C0E07406
:100C200047C0E08544828545838546F0E54712113B
:100C300004AE82AF83AAF0FBE58124FCF581C006F7
:100C4000C007C002C0038563828564838565F0E5C3
:100C500066120FCDAA82E58124FCF581EA705785E2
:100C60004863854964854A65854B66E4C0E07450F5
:100C7000C0E074C3C0E07447C0E08544828545830A
:100C80008546F0E547121241AE82AF83AAF0FBE53C
:100C90008124FCF581C006C007C002C003856382C1
:100CA0008564838565F0E566121031AA82E58124AA
:100CB000FCF581EA604B7420C0E07402C0E07480EF
:100CC000C0E01211721581158115817522017523FD
:100CD00001E4F524D20090017975F0801204357595
:100CE0002202752301E4F524D20090018075F08082
:100CF0001204359007D0120369E4F534F535020F7C
:100D000064AA36AB37C374049AE49B5003020EB056
:100D1000EA2A2A900D1773020D26020D79020DCED4
:100D2000020E29020E86E4C0E0C0E0C0E0C0E0850B
:100D30003C82853D83853EF0E53F120FCDAA82E5DA
:100D40008124FCF581EA6003020EB0E4C0E0C0E05B
:100D5000C0E0C0E08540828541838542F0E54312D2
:100D60000FCDAA82E58124FCF581EA6003020EB072
:100D7000753601E4F537020EB0E4C0E0C0E0C0E033
:100D8000C0E0853C82853D83853EF0E53F120FCD76
:100D9000AA82E58124FCF581EA7024C0E0C0E0C0AD
:100DA000E0C0E08540828541838542F0E543120F33
:100DB000CDAA82E58124FCF581EA7003020EB075AC
:100DC0003602E4F537753201E4F533020EB0E4C0C3
:100DD000E0C0E07480C0E0743FC0E0853C82853DA7
:100DE00083853EF0E53F120FCDAA82E58124FCF514
:100DF00081EA7003020EB0E4C0E0C0E07480C0E09D
:100E0000743FC0E08540828541838542F0E543120E
:100E10000FCDAA82E58124FCF581EA7003020EB0B1
:100E2000753603E4F537020EB0E4C0E0C0E0C0E080
:100E3000C0E0853C82853D83853EF0E53F120FCDC5
:100E4000AA82E58124FCF581EA7065C0E0C0E0C0BB
:100E5000E0C0E08540828541838542F0E543120F82
:100E6000CDAA82E58124FCF581EA7044F532F533A0
:100E700085304CE531C313C54C13C54CF54D753663
:100E800004E4F537802AE4F530F5318544388545AA
:100E90003985463A85473B854C82854D8312071D2F
:100EA00085826785836885F069F56AE4F536F537EC
:100EB000C044C045C046C04790000075F07A7444F5
:100EC00012124CAA82AB83ACF0FDE58124FCF581C3
:100ED000C04CC04DC030C031C040C041C042C04312
:100EE000C03CC03DC03EC03FC002C003C004C005FE
:100EF000C044C045C046C0477468C0E07402C0E04A
:100F00007480C0E0121172E58124E9F58175220137
:100F1000752301E4F524D2009002B975F080120423
:100F200035C067C068C069C06A74CBC0E07402C0D5
:100F3000E07480C0E0744EC0E07400C0E07440C053
:100F4000E01211FBE58124F6F5817522027523017B
:100F5000E4F524D20090004E75F04012043575344B
:100F600001E4F535E4F55FF5608031E53445357031
:100F70001D74CEC0E07402C0E07480C0E012117233
:100F8000158115811581756102E4F5628006756130
:100F900002E4F562055FE4B55F02056090000112AE
:100FA000036902098120F71430F6148883A882208F
:100FB000F507E6A88375830022E280F7E49322E038
:100FC00022E4AC83AB82FAF9748E021374FFA88119
:100FD000181812139CD2D133E6400730E70B758204
:100FE000012220E70675820022C2D112137EE97029
:100FF00003F5822230D101B3E433F582221213C704
:10100000700AE582458345F0700122E430D112F484
:10101000700BE5F0F47006E58330E7012290800064
:1010200022700AE5F07006E58320E70122907FFF39
:1010300022FFA881181812139CD2D133E640073042
:10104000E70B7582002220E70675820122C2D112C9
:10105000137EE97003F5822220D101B3E433F582D7
:10106000221214A4BC0003021443EF60FA30D5022C
:10107000B2D1E583B4FF03021459E582B4FF030241
:101080001459258340072482400B021443248314FF
:101090005003021459F582EA8DF0A4A8F0EA8EF00C
:1010A000A428F8E435F0F9EB8DF0A428E935F0F93F
:1010B000E433CA8FF0A429F9EA35F0FAEBF88EF0A0
:1010C000A429F9EA35F0FAE433FBEC8DF0A429F910
:1010D000EA35F0FAE43BFBE88FF0A42AFAEB35F0AE
:1010E000FBE433CCFD8EF0A42AFAEB35F0FBE43CB4
:1010F000FCED8FF0A42BFBEC35F0FC20E703121481
:10110000710214221214A47900E583B58202800DC5
:1011100050031214D2E583C395821214ECE5D0C4B7
:1011200065D020E117EA2DFAEB3EFBEC3FFC5009BD
:1011300074011214ECEC4480FC021422C3EA9DFA00
:10114000EB9EFBEC9FFC500FC3E499F9E49AFAE4A0
:101150009BFBE49CFCB2D1121471021422021EBB50
:1011600085827985837A85F07B85107C90115D027C
:10117000190EC008858108E50824FBF57CE50824E4
:10118000FBF8867908867A08867B90115D12190E25
:10119000D0082220F71030F6118883A88220F507A6
:1011A000F6A88375830022F280F7F022AA82AB09A9
:1011B000AC0AAD0B8B828C838DF0EA12119305097A
:1011C000E4B50902050A2285820985830A85F00BA8
:1011D000850C79850D7A850E7B850F7C9011AC127C
:1011E000190EAA82AB83AC09AD0AAE0B8C828D833B
:1011F0008EF0E41211938A828B8322C008858108C5
:10120000E50824F8F57CE50824FBF8860908860A39
:1012100008860BE50824F8F8867908867A08867B24
:101220009011AC12190EAA82AB83AC09AD0AAE0BB9
:101230008C828D838EF0E41211938A828B83D00886
:1012400022A8811818C6B2E7C60211041214A430ED
:10125000D502B2D1BF0009BC0003021466021459C2
:10126000BC0003021443E583B4FF0BE582B4FF0323
:10127000021466021443E582B4FF03021459C395B5
:10128000835007247F400B02144324801450030230
:101290001459C0E0E4CCCBCAF98D118E128F13EF34
:1012A00054F0C4F5147583068514F0EB84F582E9D7
:1012B000C4F9EAC4FAEBC4FBEC540FC47803D6FCBF
:1012C00018EBD6FB18EAD6FA8582F0EDA4A8F0FD5B
:1012D0008582F0EEA428FEE435F0F88582F0EFA4D4
:1012E00028FFE435F0F8E99DF9EA9EFAEB9FFBEC64
:1012F00098FCAD11AE12AF1330E7101582E92DF94D
:10130000EA3EFAEB3FFBE43CFC80EDC082D58398DB
:10131000C3E933F9EA33FAEB33FBEC33FCC3E99D61
:10132000EA9EEB9FEC9400B3E413F9D002D0E0C442
:101330004AFAD003D0E0C44BFBD004D0E0F5F0541F
:101340000FC44CFCD082158230F40FD3EC13FCEBAD
:1013500013FBEA13FAE913F90582E930E70A74018D
:101360002AFAE43BFBE43CFC02143AFCABF0AA830F
:10137000A982749EC2D1F5821214710214227901DD
:10138000AA82E68F82B5821318E6B5F00E18E6B58C
:10139000830918E68A82B58202790022B4800FE5BB
:1013A000F0700AE5837006E58270027F00EFB68078
:1013B0001518B6001018B6000B18B6000608080875
:1013C00076002208080822121ED0C3749E9582401F
:1013D0003979001214EC30D126E9F42401F582EABF
:1013E000F43400F583EBF43400F5F0ECF4340070E1
:1013F0000AE582458345F0700122E430E70F22ECD4
:1014000020E71489828A838BF02230D10AE4F582A6
:10141000F583F5F074802274FFF582F583F5F0749E
:101420007F22B98003EA13B34010EA2401FAE43BB7
:10143000FBE43CFC50047C800582BC000EBB000B2E
:10144000BA0008E4F5F0F583F58222A2D1E5821313
:101450008CF092F78B838A8222E4F583F58275F013
:1014600080F4A2D11322E4F583F58275F0C0747F75
:10147000227804EC7011E58224F8500AF582E4C960
:10148000CACBFCD8EF22EC7820058220E713D58266
:101490000122C3E933F9EA33FAEB33FBEC33FCD82E
:1014A000EA158222AA82AB83A2F73392D16002D2DC
:1014B000F7F582ACF0E58124F9F8E6FD08E6FE08D0
:1014C00086F008E6A2F73392D56002D2F7F583AF33
:1014D000F022E582C583F582A2D133A2D592D11341
:1014E00092D5ECCFFCEBCEFBEACDFA226040F8259A
:1014F00082500274FFF582E824F8501ECCCBCAF962
:10150000E4CC24F85014CBCAF9E4CB24F8500BCA2D
:10151000F9E4CA24F8500379002224086010F8C3C3
:10152000EC13FCEB13FBEA13FAE913F9D8F122AA46
:10153000827440C0E07415C0E0C06BC06C8A822227
:101540000572E4B57202057322AA8274302AFA2465
:10155000C6500A74072AFA3001034302208A820225
:10156000152FE582FAC4540FF582C002121549D036
:1015700002740F5AF582021549AA6DAB6EAC6FADBD
:1015800070AE71757820EE2EFEED235401FF4206F9
:10159000EA2AFAEB33FBEC33FCED33FDC3EE957432
:1015A0004008EEC39574FE430201D578D98A6D8B4D
:1015B0006E8C6F8D708E71227889E624D075F00A5A
:1015C000A4FA788AE624D02AFA78888603BB2D0408
:1015D000C3E49AFA757401C3E464808AF063F0800E
:1015E00095F050297578038A0374F62578401C0518
:1015F00074E57814247DF8E578247DF98704A60441
:10160000772E1BEBFA6004057880DE8B02EA30E768
:101610000D787E8603787FA603787E762E0AE5769F
:10162000600AE57604FB2574F5748005300C02052C
:1016300074787D8603E4BB2D0104FB70062007034C
:1016400030080205743005030216FF300657EB60C0
:101650000C75822DC00212152FD002801C30070C91
:1016600075822BC00212152FD002800D30080A752A
:101670008220C00212152FD002787E8604BC2E0C68
:10168000758230C00212152FD0021575AC75157514
:10169000C3E5749C4003021743758230C0021215E3
:1016A0002FD00280E7AC751575C3E5749C500C759E
:1016B0008220C00212152FD00280EA787D8604BCF9
:1016C0002D0C75822DC00212152FD002801C300700
:1016D0000C75822BC00212152FD002800D30080A23
:1016E000758220C00212152FD002787E8604BC2E8F
:1016F00052758230C00212152FD00215758044EB4E
:10170000600E75822DC00212152FD0021575802033
:1017100030070E75822BC00212152FD0021575806E
:101720000F30080C758220C00212152FD0021575DB
:10173000787E8603BB2E0C758230C00212152FD026
:10174000021575757801C20EE578247DF88603BB15
:101750004503021800BB2E348A03C3E464808BF077
:1017600063F08095F0500F758230C00312152FD0B2
:10177000031B8B0280E48B02D20EE5767038200CBE
:101780000302180075822E12152F8074300E278ADE
:1017900003EB30E71FC3E464808576F063F0809547
:1017A000F0500C758230C00312152FD00315760B44
:1017B0008B0280DD8B02300E0EC3E464808576F0F0
:1017C00063F08095F05021E578247DF886038B82C4
:1017D000C00212152FD002300E0EE578247DF88657
:1017E00003BB2E02800215761575C3E464808576EE
:1017F000F063F08095F04003200E0505780217484D
:10180000C3E464808576F063F08095F0500A7582B9
:101810003012152F157680E830050FAA751575EA78
:10182000600875822012152F80F122E57670033052
:101830000C0D74072576FAE575C39AF5758006E5F3
:101840007524FAF575757800787D8602BA2B0F201D
:10185000070C787D76202008057578010575200530
:1018600019AA75C3E464808AF063F08095F0500A89
:1018700075822012152F157580E7C20EE578247D3C
:10188000F88602BA00028069BA451F300102766507
:10189000C3E464808576F063F08095F0500A758229
:1018A0003012152F157680E8D20EC3E5789402E445
:1018B00033FA7014EA700EC3E464808576F063F046
:1018C0008095F04003300E16E578247DF886028A74
:1018D0008212152FE57824FD50121576800E7402C1
:1018E000B57809300C0675822E12152F057802186E
:1018F0007C300519AA75C3E464808AF063F0809592
:10190000F0500A75822012152F157580E722858206
:101910006B85836CE4F572F573AA79AB7AAC7B8A3C
:10192000828B838CF0120FA5FD74012AF579E43BBC
:10193000F57A8C7BEDFA7003021EB4BA250280039F
:10194000021EACC205C206C207C208C209C20AC250
:101950000BC20CC202C203C2047574007575007517
:1019600076FFAB79AC7AAD7B8B828C838DF0120FD6
:10197000A5FAA3AB82AC838B798C7A8D7BBA2507D1
:101980008A8212152F80928A06BE3000402E8A0667
:10199000EE24C6402774FFB57613E57575F00AA4EA
:1019A000FEEA24D02EF57570BFD20680BBE57675B1
:1019B000F00AA4FEEA24D02EF57680ACBA2E0A7482
:1019C000FFB576A4757600809F8A06BE6100400E42
:1019D0008A06EE248540075302DFD2018002C2014D
:1019E000BA20028075BA2303021A69BA2A03021ABE
:1019F0006EBA2B02805FBA2D028055BA4202805F18
:101A0000BA4303021AB3BA4403021BEEBA450302F7
:101A10001C08BA4603021C04BA4703021C0CBA494C
:101A200003021BEEBA4C02803BBA4E03021C10BAF2
:101A30004F03021BF5BA5003021B87BA5303021A65
:101A4000D7BA5503021BFABA5803021BFF021C3A0D
:101A5000D205021968D207021968D208021968D2A1
:101A60000A021968D20B021968D20C02196874FFB5
:101A7000B57620300A0BE57C14F8887C867502194F
:101A800068E57C24FEF8887C8606088607188E7533
:101A9000021968300A0BE57C14F8887C86760219F6
:101AA00068E57C24FEF8887C8606088607188E7612
:101AB000021968300A0AE57C14F8887C8602800FD7
:101AC000E57C24FEF8887C8603088604188B028A4D
:101AD0008212152F021C3FE57C24FDF8887C8603CA
:101AE00008860408860518188B6D8C6E8D6F8B82A6
:101AF0008C838DF0122001AB82AC838B7774FFB5A1
:101B0000760385777620051DC3E57795755016E534
:101B100075C39577F575AB751575EB600875822003
:101B200012152F80F1856D82856E83856FF0120FFF
:101B3000A5FBFA6029AB761576C3E464808BF0636D
:101B4000F08095F050188A8212152FAB6DAC6EADF7
:101B50006F0BBB00010C8B6D8C6E8D6F80C72005E9
:101B600003021C3FC3E57795754003021C3FE575F2
:101B7000C39577F575AB751575EB7003021C3F7552
:101B8000822012152F80EEE57C24FDF8887C8603E8
:101B900008860408860518188B6D8C6E8D6FE56FAE
:101BA000FB30E7047A438013EB546060047A508082
:101BB0000AEB30E6047A4980027A588A82C002121F
:101BC000152F75823A12152F75823012152F7582D6
:101BD0007812152FD002BA4902800BBA5002800643
:101BE000856E82121562856D821215628051D2094E
:101BF00075740A804A757408804575740A8040754A
:101C00007410803BD2028037D2038033D204802FFD
:101C1000E57C24FDF8887C86030886040886051880
:101C2000188B6D8C6E8D6F8B828C838DF0E57212AC
:101C30001193A3E57312119380058A8212152F2048
:101C40000206200303300470E57C24FCF8887C86BF
:101C5000030886040886050886061818188B6D8CFC
:101C60006E8D6F8E70E56DE56EE56FE5708B828C25
:101C7000838DF0EE121EE274FFB5760375760630A2
:101C80000427747F5570FB8B71E571EB2BFB8B7117
:101C9000E56F30E70674014571F571E57124684020
:101CA00006749925714002D20330030612182B02E4
:101CB00019191215B8021919E57470030219197B64
:101CC00082300A2BE57C14F8887CE6FC3395E0FD35
:101CD000FEFF8C6D8D6E8E6F8F7020095EAC6D7DFA
:101CE000007E007F008C6D8D6E8E6F8F70804C300B
:101CF0000B1FE57C24FCF8887C8604088605088692
:101D0000060886071818188C6D8D6E8E6F8F708080
:101D10002AE57C24FEF8887C860408860518ED33C5
:101D200095E0FEFF8C6D8D6E8E6F8F7020090CAC70
:101D30006DAD6E7E007F008E6F8F70300C43E56D51
:101D4000456E456F457060397408B5740C75823006
:101D5000C00312152FD00380287410B57423758228
:101D600030C00312152FD00330010C758278C003E8
:101D700012152FD003800A758258C00312152FD078
:101D800003300925AC6DAD6EAE6FE570FF30E7171F
:101D9000C3E49CFCE49DFDE49EFEE49FFF8C6D8DFE
:101DA0006E8E6F8F708002C209757700D20D8B0026
:101DB000757100C000121579D000200D0DE571C4B9
:101DC000FCE6FD4CF61888038002A6710577B20D7B
:101DD000E56D456E456F457070D68803E5757003F7
:101DE00075750120061A200517E57704FCC3957563
:101DF000500E758220C00312152FD003157580E98F
:101E000030090E75822DC00312152FD00315758071
:101E100024E577602030070E75822BC00312152F42
:101E2000D0031575800F30080C758220C003121581
:101E30002FD003157520051EAC751575C3E5779C6D
:101E400050273006047C3080027C208C82C0031234
:101E5000152FD00380E2C3E57795755009E575C36A
:101E60009577F57580037575008B00AB771577EB6B
:101E70006022B20D200D0A08E6C4540FFB8B71805E
:101E8000078603740F5BF571857182C000121549D6
:101E9000D00080D7200503021919AB751575EB70BA
:101EA0000302191975822012152F80EE8A821215ED
:101EB0002F02191985728285738322AA82BA0A08B1
:101EC00010990280FB75990D10990280FB8A992266
:101ED000AA82AB83A2F73392D16002D2F7F582AC2B
:101EE000F022C0E0F84582458345F07009F5F0FB2B
:101EF000FCFDFE021FB0E823A2F792E0F8A982AA37
:101F000083D2F7ABF07C007E07C37497984040748F
:101F1000FF2EFE740A89F0A4F985F082740A8AF013
:101F2000A4FA85F083740A8BF0A4FB740529F9EAFE
:101F30003582FAEB3583FB740035F0FCC3EC13FCFF
:101F4000EB13FBEA13FAE913F908EC70EF80BAE837
:101F5000C3947FF88B838EF0E4FBFCFDFEFF08C387
:101F6000E933F9EA33FAE58333F583EB3BD4FBEC51
:101F70003CD4FCED3DD4FDEE3ED4FEEF3FD4FF60FB
:101F80002D05F074052BD4FBE43CD4FCE43DD4FDDA
:101F9000E43ED4FEE43FD4FF758204C3EF13FFEEAA
:101FA00013FEED13FDEC13FCEB13FBD582EDD8AF64
:101FB000787DD0E020E704762B8002762D08790624
:101FC000E7C4540F4430F608B90603762E08E754E8
:101FD0000F4430F60819B902E7764508E5F020E726
:101FE00004762B8004762DF4040875F00A844430BE
:101FF000F608E5F04430F608E4F690007D75F04010
:1020000022AA82AB83ACF07D007E008A828B838C17
:10201000F0120FA5FFA3AA82AB83EF60070DBD00EE
:10202000EA0E80E78D828E8322000000000000000F
:00000001FF
